{
  "_format": "hh-sol-artifact-1",
  "contractName": "GameShop",
  "sourceName": "contracts/GameShop.sol",
  "abi": [
    {
      "inputs": [],
      "stateMutability": "nonpayable",
      "type": "constructor"
    },
    {
      "anonymous": false,
      "inputs": [
        {
          "indexed": true,
          "internalType": "address",
          "name": "from",
          "type": "address"
        },
        {
          "indexed": true,
          "internalType": "uint256",
          "name": "price",
          "type": "uint256"
        },
        {
          "indexed": true,
          "internalType": "uint256",
          "name": "date",
          "type": "uint256"
        }
      ],
      "name": "Transaction",
      "type": "event"
    },
    {
      "inputs": [
        {
          "internalType": "string",
          "name": "_name",
          "type": "string"
        },
        {
          "internalType": "uint256",
          "name": "_price",
          "type": "uint256"
        },
        {
          "internalType": "string[]",
          "name": "_keys",
          "type": "string[]"
        }
      ],
      "name": "addGame",
      "outputs": [],
      "stateMutability": "nonpayable",
      "type": "function"
    },
    {
      "inputs": [
        {
          "internalType": "string",
          "name": "_key",
          "type": "string"
        },
        {
          "internalType": "uint256",
          "name": "_gameId",
          "type": "uint256"
        }
      ],
      "name": "addSerialKey",
      "outputs": [],
      "stateMutability": "nonpayable",
      "type": "function"
    },
    {
      "inputs": [
        {
          "internalType": "uint256",
          "name": "_id",
          "type": "uint256"
        }
      ],
      "name": "buyGame",
      "outputs": [],
      "stateMutability": "payable",
      "type": "function"
    },
    {
      "inputs": [],
      "name": "claimStoreFunds",
      "outputs": [],
      "stateMutability": "payable",
      "type": "function"
    },
    {
      "inputs": [],
      "name": "getContractBalance",
      "outputs": [
        {
          "internalType": "uint256",
          "name": "",
          "type": "uint256"
        }
      ],
      "stateMutability": "view",
      "type": "function"
    },
    {
      "inputs": [],
      "name": "getCustomerGames",
      "outputs": [
        {
          "components": [
            {
              "internalType": "uint256",
              "name": "price",
              "type": "uint256"
            },
            {
              "internalType": "string",
              "name": "name",
              "type": "string"
            },
            {
              "internalType": "string",
              "name": "key",
              "type": "string"
            }
          ],
          "internalType": "struct GameShop.PurchasedGame[]",
          "name": "",
          "type": "tuple[]"
        }
      ],
      "stateMutability": "view",
      "type": "function"
    },
    {
      "inputs": [
        {
          "internalType": "uint256",
          "name": "_index",
          "type": "uint256"
        }
      ],
      "name": "getGameInfo",
      "outputs": [
        {
          "internalType": "string",
          "name": "name",
          "type": "string"
        },
        {
          "internalType": "uint256",
          "name": "keys",
          "type": "uint256"
        },
        {
          "internalType": "uint256",
          "name": "price",
          "type": "uint256"
        },
        {
          "internalType": "enum GameShop.GameStatus",
          "name": "status",
          "type": "uint8"
        },
        {
          "internalType": "uint256",
          "name": "id",
          "type": "uint256"
        }
      ],
      "stateMutability": "view",
      "type": "function"
    },
    {
      "inputs": [],
      "name": "getGamesCount",
      "outputs": [
        {
          "internalType": "uint256",
          "name": "",
          "type": "uint256"
        }
      ],
      "stateMutability": "view",
      "type": "function"
    },
    {
      "inputs": [
        {
          "internalType": "uint256",
          "name": "gameId",
          "type": "uint256"
        }
      ],
      "name": "getKeys",
      "outputs": [
        {
          "internalType": "uint256",
          "name": "",
          "type": "uint256"
        }
      ],
      "stateMutability": "view",
      "type": "function"
    },
    {
      "inputs": [],
      "name": "getOwner",
      "outputs": [
        {
          "internalType": "address",
          "name": "",
          "type": "address"
        }
      ],
      "stateMutability": "view",
      "type": "function"
    },
    {
      "inputs": [
        {
          "internalType": "uint256",
          "name": "_id",
          "type": "uint256"
        }
      ],
      "name": "removeGame",
      "outputs": [],
      "stateMutability": "nonpayable",
      "type": "function"
    },
    {
      "inputs": [
        {
          "internalType": "address",
          "name": "",
          "type": "address"
        }
      ],
      "name": "users",
      "outputs": [
        {
          "internalType": "string",
          "name": "name",
          "type": "string"
        },
        {
          "internalType": "address",
          "name": "userAddress",
          "type": "address"
        }
      ],
      "stateMutability": "view",
      "type": "function"
    },
    {
      "stateMutability": "payable",
      "type": "receive"
    }
  ],
  "bytecode": "0x608060405234801561001057600080fd5b50336000806101000a81548173ffffffffffffffffffffffffffffffffffffffff021916908373ffffffffffffffffffffffffffffffffffffffff160217905550612c90806100606000396000f3fe6080604052600436106100ab5760003560e01c8063a54f110311610064578063a54f11031461021d578063a87430ba14610246578063ceb27ff214610284578063e7be97ac146102ad578063f7760517146102b7578063f8ea5adc146102d3576100f0565b806317b7a476146100f557806347e1d550146101205780636f9fb98a1461016157806373d312401461018c578063893d20e8146101b55780638d357fa3146101e0576100f0565b366100f0576100ee6040518060400160405280601881526020017f436f6e74726163742072656365697665642045746865722100000000000000008152506102fe565b005b600080fd5b34801561010157600080fd5b5061010a610397565b604051610117919061186f565b60405180910390f35b34801561012c57600080fd5b50610147600480360381019061014291906118ca565b6103a4565b6040516101589594939291906119fe565b60405180910390f35b34801561016d57600080fd5b506101766104f8565b604051610183919061186f565b60405180910390f35b34801561019857600080fd5b506101b360048036038101906101ae91906118ca565b610500565b005b3480156101c157600080fd5b506101ca6105df565b6040516101d79190611a99565b60405180910390f35b3480156101ec57600080fd5b50610207600480360381019061020291906118ca565b610608565b604051610214919061186f565b60405180910390f35b34801561022957600080fd5b50610244600480360381019061023f9190611b6f565b61063a565b005b34801561025257600080fd5b5061026d60048036038101906102689190611c30565b610855565b60405161027b929190611c5d565b60405180910390f35b34801561029057600080fd5b506102ab60048036038101906102a69190611c8d565b610921565b005b6102b5610d64565b005b6102d160048036038101906102cc91906118ca565b610f05565b005b3480156102df57600080fd5b506102e8611562565b6040516102f59190611e5f565b60405180910390f35b610394816040516024016103129190611e81565b6040516020818303038152906040527f41304fac000000000000000000000000000000000000000000000000000000007bffffffffffffffffffffffffffffffffffffffffffffffffffffffff19166020820180517bffffffffffffffffffffffffffffffffffffffffffffffffffffffff838183161783525050505061172c565b50565b6000600180549050905090565b6060600080600080600186815481106103c0576103bf611ea3565b5b90600052602060002090600502016002016103da87610608565b600188815481106103ee576103ed611ea3565b5b9060005260206000209060050201600101546001898154811061041457610413611ea3565b5b906000526020600020906005020160040160009054906101000a900460ff1660018a8154811061044757610446611ea3565b5b90600052602060002090600502016000015484805461046590611f01565b80601f016020809104026020016040519081016040528092919081815260200182805461049190611f01565b80156104de5780601f106104b3576101008083540402835291602001916104de565b820191906000526020600020905b8154815290600101906020018083116104c157829003601f168201915b505050505094509450945094509450945091939590929450565b600047905090565b60008054906101000a900473ffffffffffffffffffffffffffffffffffffffff1673ffffffffffffffffffffffffffffffffffffffff163373ffffffffffffffffffffffffffffffffffffffff161461058e576040517f08c379a000000000000000000000000000000000000000000000000000000000815260040161058590611f7e565b60405180910390fd5b6002600182815481106105a4576105a3611ea3565b5b906000526020600020906005020160040160006101000a81548160ff021916908360028111156105d7576105d6611987565b5b021790555050565b60008060009054906101000a900473ffffffffffffffffffffffffffffffffffffffff16905090565b60006001828154811061061e5761061d611ea3565b5b9060005260206000209060050201600301805490509050919050565b60008054906101000a900473ffffffffffffffffffffffffffffffffffffffff1673ffffffffffffffffffffffffffffffffffffffff163373ffffffffffffffffffffffffffffffffffffffff16146106c8576040517f08c379a00000000000000000000000000000000000000000000000000000000081526004016106bf90611f7e565b60405180910390fd5b600382829050111561070f576040517f08c379a000000000000000000000000000000000000000000000000000000000815260040161070690611fea565b60405180910390fd5b6000600180549050905060006040518060a0016040528083815260200186815260200188888080601f016020809104026020016040519081016040528093929190818152602001838380828437600081840152601f19601f82011690508083019250505050505050815260200185859061078991906121ed565b8152602001600160028111156107a2576107a1611987565b5b81525090506001819080600181540180825580915050600190039060005260206000209060050201600090919091909150600082015181600001556020820151816001015560408201518160020190816107fc91906123ae565b506060820151816003019080519060200190610819929190611772565b5060808201518160040160006101000a81548160ff0219169083600281111561084557610844611987565b5b0217905550505050505050505050565b600360205280600052604060002060009150905080600001805461087890611f01565b80601f01602080910402602001604051908101604052809291908181526020018280546108a490611f01565b80156108f15780601f106108c6576101008083540402835291602001916108f1565b820191906000526020600020905b8154815290600101906020018083116108d457829003601f168201915b5050505050908060010160009054906101000a900473ffffffffffffffffffffffffffffffffffffffff16905082565b60008054906101000a900473ffffffffffffffffffffffffffffffffffffffff1673ffffffffffffffffffffffffffffffffffffffff163373ffffffffffffffffffffffffffffffffffffffff16146109af576040517f08c379a00000000000000000000000000000000000000000000000000000000081526004016109a690611f7e565b60405180910390fd5b60018054905081106109f6576040517f08c379a00000000000000000000000000000000000000000000000000000000081526004016109ed906124cc565b60405180910390fd5b60016002811115610a0a57610a09611987565b5b60018281548110610a1e57610a1d611ea3565b5b906000526020600020906005020160040160009054906101000a900460ff166002811115610a4f57610a4e611987565b5b1480610ab1575060006002811115610a6a57610a69611987565b5b60018281548110610a7e57610a7d611ea3565b5b906000526020600020906005020160040160009054906101000a900460ff166002811115610aaf57610aae611987565b5b145b610af0576040517f08c379a0000000000000000000000000000000000000000000000000000000008152600401610ae790612538565b60405180910390fd5b6003610afb82610608565b10610b3b576040517f08c379a0000000000000000000000000000000000000000000000000000000008152600401610b3290611fea565b60405180910390fd5b60005b60018281548110610b5257610b51611ea3565b5b906000526020600020906005020160030180549050811015610c51578383604051602001610b81929190612588565b6040516020818303038152906040528051906020012060018381548110610bab57610baa611ea3565b5b90600052602060002090600502016003018281548110610bce57610bcd611ea3565b5b90600052602060002001604051602001610be89190612624565b6040516020818303038152906040528051906020012003610c3e576040517f08c379a0000000000000000000000000000000000000000000000000000000008152600401610c35906126ad565b60405180910390fd5b8080610c49906126fc565b915050610b3e565b5060018181548110610c6657610c65611ea3565b5b9060005260206000209060050201600301838390918060018154018082558091505060019003906000526020600020016000909192909192909192909192509182610cb292919061274f565b5060006002811115610cc757610cc6611987565b5b60018281548110610cdb57610cda611ea3565b5b906000526020600020906005020160040160009054906101000a900460ff166002811115610d0c57610d0b611987565b5b03610d5f576001808281548110610d2657610d25611ea3565b5b906000526020600020906005020160040160006101000a81548160ff02191690836002811115610d5957610d58611987565b5b02179055505b505050565b60008054906101000a900473ffffffffffffffffffffffffffffffffffffffff1673ffffffffffffffffffffffffffffffffffffffff163373ffffffffffffffffffffffffffffffffffffffff1614610df2576040517f08c379a0000000000000000000000000000000000000000000000000000000008152600401610de990611f7e565b60405180910390fd5b60004711610e35576040517f08c379a0000000000000000000000000000000000000000000000000000000008152600401610e2c9061286b565b60405180910390fd5b60008060009054906101000a900473ffffffffffffffffffffffffffffffffffffffff1673ffffffffffffffffffffffffffffffffffffffff1647604051610e7c906128bc565b60006040518083038185875af1925050503d8060008114610eb9576040519150601f19603f3d011682016040523d82523d6000602084013e610ebe565b606091505b5050905080610f02576040517f08c379a0000000000000000000000000000000000000000000000000000000008152600401610ef99061291d565b60405180910390fd5b50565b8060016002811115610f1a57610f19611987565b5b60018281548110610f2e57610f2d611ea3565b5b906000526020600020906005020160040160009054906101000a900460ff166002811115610f5f57610f5e611987565b5b14610f9f576040517f08c379a0000000000000000000000000000000000000000000000000000000008152600401610f9690612989565b60405180910390fd5b60018281548110610fb357610fb2611ea3565b5b9060005260206000209060050201600101543414611006576040517f08c379a0000000000000000000000000000000000000000000000000000000008152600401610ffd906129f5565b60405180910390fd5b60003073ffffffffffffffffffffffffffffffffffffffff166001848154811061103357611032611ea3565b5b906000526020600020906005020160010154604051611051906128bc565b60006040518083038185875af1925050503d806000811461108e576040519150601f19603f3d011682016040523d82523d6000602084013e611093565b606091505b50509050806110d7576040517f08c379a00000000000000000000000000000000000000000000000000000000081526004016110ce90612a61565b60405180910390fd5b60006040518060600160405280600186815481106110f8576110f7611ea3565b5b90600052602060002090600502016001015481526020016001868154811061112357611122611ea3565b5b9060005260206000209060050201600201805461113f90611f01565b80601f016020809104026020016040519081016040528092919081815260200182805461116b90611f01565b80156111b85780601f1061118d576101008083540402835291602001916111b8565b820191906000526020600020905b81548152906001019060200180831161119b57829003601f168201915b50505050508152602001600186815481106111d6576111d5611ea3565b5b90600052602060002090600502016003016000815481106111fa576111f9611ea3565b5b90600052602060002001805461120f90611f01565b80601f016020809104026020016040519081016040528092919081815260200182805461123b90611f01565b80156112885780601f1061125d57610100808354040283529160200191611288565b820191906000526020600020905b81548152906001019060200180831161126b57829003601f168201915b50505050508152509050600260003373ffffffffffffffffffffffffffffffffffffffff1673ffffffffffffffffffffffffffffffffffffffff16815260200190815260200160002081908060018154018082558091505060019003906000526020600020906003020160009091909190915060008201518160000155602082015181600101908161131a91906123ae565b50604082015181600201908161133091906123ae565b505050426001858154811061134857611347611ea3565b5b9060005260206000209060050201600101543373ffffffffffffffffffffffffffffffffffffffff167feb2094161225f2f6f8f4eb4bc6520b72e6cfce96c4490c22d6e960e07ed7300460405160405180910390a460005b60018086815481106113b5576113b4611ea3565b5b9060005260206000209060050201600301805490506113d49190612a81565b81101561148957600185815481106113ef576113ee611ea3565b5b906000526020600020906005020160030160018261140d9190612ab5565b8154811061141e5761141d611ea3565b5b906000526020600020016001868154811061143c5761143b611ea3565b5b9060005260206000209060050201600301828154811061145f5761145e611ea3565b5b9060005260206000200190816114759190612b14565b508080611481906126fc565b9150506113a0565b506001848154811061149e5761149d611ea3565b5b90600052602060002090600502016003018054806114bf576114be612bfc565b5b6001900381819060005260206000200160006114db91906117cb565b90556000600185815481106114f3576114f2611ea3565b5b9060005260206000209060050201600301805490500361155c5760006001858154811061152357611522611ea3565b5b906000526020600020906005020160040160006101000a81548160ff0219169083600281111561155657611555611987565b5b02179055505b50505050565b6060600260003373ffffffffffffffffffffffffffffffffffffffff1673ffffffffffffffffffffffffffffffffffffffff168152602001908152602001600020805480602002602001604051908101604052809291908181526020016000905b8282101561172357838290600052602060002090600302016040518060600160405290816000820154815260200160018201805461160090611f01565b80601f016020809104026020016040519081016040528092919081815260200182805461162c90611f01565b80156116795780601f1061164e57610100808354040283529160200191611679565b820191906000526020600020905b81548152906001019060200180831161165c57829003601f168201915b5050505050815260200160028201805461169290611f01565b80601f01602080910402602001604051908101604052809291908181526020018280546116be90611f01565b801561170b5780601f106116e05761010080835404028352916020019161170b565b820191906000526020600020905b8154815290600101906020018083116116ee57829003601f168201915b505050505081525050815260200190600101906115c3565b50505050905090565b6117438161173b611746611767565b63ffffffff16565b50565b60006a636f6e736f6c652e6c6f679050600080835160208501845afa505050565b61180b819050919050565b8280548282559060005260206000209081019282156117ba579160200282015b828111156117b95782518290816117a991906123ae565b5091602001919060010190611792565b5b5090506117c79190611815565b5090565b5080546117d790611f01565b6000825580601f106117e95750611808565b601f0160209004906000526020600020908101906118079190611839565b5b50565b611813612c2b565b565b5b80821115611835576000818161182c91906117cb565b50600101611816565b5090565b5b8082111561185257600081600090555060010161183a565b5090565b6000819050919050565b61186981611856565b82525050565b60006020820190506118846000830184611860565b92915050565b6000604051905090565b600080fd5b600080fd5b6118a781611856565b81146118b257600080fd5b50565b6000813590506118c48161189e565b92915050565b6000602082840312156118e0576118df611894565b5b60006118ee848285016118b5565b91505092915050565b600081519050919050565b600082825260208201905092915050565b60005b83811015611931578082015181840152602081019050611916565b60008484015250505050565b6000601f19601f8301169050919050565b6000611959826118f7565b6119638185611902565b9350611973818560208601611913565b61197c8161193d565b840191505092915050565b7f4e487b7100000000000000000000000000000000000000000000000000000000600052602160045260246000fd5b600381106119c7576119c6611987565b5b50565b60008190506119d8826119b6565b919050565b60006119e8826119ca565b9050919050565b6119f8816119dd565b82525050565b600060a0820190508181036000830152611a18818861194e565b9050611a276020830187611860565b611a346040830186611860565b611a4160608301856119ef565b611a4e6080830184611860565b9695505050505050565b600073ffffffffffffffffffffffffffffffffffffffff82169050919050565b6000611a8382611a58565b9050919050565b611a9381611a78565b82525050565b6000602082019050611aae6000830184611a8a565b92915050565b600080fd5b600080fd5b600080fd5b60008083601f840112611ad957611ad8611ab4565b5b8235905067ffffffffffffffff811115611af657611af5611ab9565b5b602083019150836001820283011115611b1257611b11611abe565b5b9250929050565b60008083601f840112611b2f57611b2e611ab4565b5b8235905067ffffffffffffffff811115611b4c57611b4b611ab9565b5b602083019150836020820283011115611b6857611b67611abe565b5b9250929050565b600080600080600060608688031215611b8b57611b8a611894565b5b600086013567ffffffffffffffff811115611ba957611ba8611899565b5b611bb588828901611ac3565b95509550506020611bc8888289016118b5565b935050604086013567ffffffffffffffff811115611be957611be8611899565b5b611bf588828901611b19565b92509250509295509295909350565b611c0d81611a78565b8114611c1857600080fd5b50565b600081359050611c2a81611c04565b92915050565b600060208284031215611c4657611c45611894565b5b6000611c5484828501611c1b565b91505092915050565b60006040820190508181036000830152611c77818561194e565b9050611c866020830184611a8a565b9392505050565b600080600060408486031215611ca657611ca5611894565b5b600084013567ffffffffffffffff811115611cc457611cc3611899565b5b611cd086828701611ac3565b93509350506020611ce3868287016118b5565b9150509250925092565b600081519050919050565b600082825260208201905092915050565b6000819050602082019050919050565b611d2281611856565b82525050565b600082825260208201905092915050565b6000611d44826118f7565b611d4e8185611d28565b9350611d5e818560208601611913565b611d678161193d565b840191505092915050565b6000606083016000830151611d8a6000860182611d19565b5060208301518482036020860152611da28282611d39565b91505060408301518482036040860152611dbc8282611d39565b9150508091505092915050565b6000611dd58383611d72565b905092915050565b6000602082019050919050565b6000611df582611ced565b611dff8185611cf8565b935083602082028501611e1185611d09565b8060005b85811015611e4d5784840389528151611e2e8582611dc9565b9450611e3983611ddd565b925060208a01995050600181019050611e15565b50829750879550505050505092915050565b60006020820190508181036000830152611e798184611dea565b905092915050565b60006020820190508181036000830152611e9b818461194e565b905092915050565b7f4e487b7100000000000000000000000000000000000000000000000000000000600052603260045260246000fd5b7f4e487b7100000000000000000000000000000000000000000000000000000000600052602260045260246000fd5b60006002820490506001821680611f1957607f821691505b602082108103611f2c57611f2b611ed2565b5b50919050565b7f5065726d697373696f6e2064656e696564000000000000000000000000000000600082015250565b6000611f68601183611902565b9150611f7382611f32565b602082019050919050565b60006020820190508181036000830152611f9781611f5b565b9050919050565b7f4d6178206e756d62657220666f722073657269616c206b657973206973203300600082015250565b6000611fd4601f83611902565b9150611fdf82611f9e565b602082019050919050565b6000602082019050818103600083015261200381611fc7565b9050919050565b7f4e487b7100000000000000000000000000000000000000000000000000000000600052604160045260246000fd5b6120428261193d565b810181811067ffffffffffffffff821117156120615761206061200a565b5b80604052505050565b600061207461188a565b90506120808282612039565b919050565b600067ffffffffffffffff8211156120a05761209f61200a565b5b602082029050602081019050919050565b600080fd5b600067ffffffffffffffff8211156120d1576120d061200a565b5b6120da8261193d565b9050602081019050919050565b82818337600083830152505050565b6000612109612104846120b6565b61206a565b905082815260208101848484011115612125576121246120b1565b5b6121308482856120e7565b509392505050565b600082601f83011261214d5761214c611ab4565b5b813561215d8482602086016120f6565b91505092915050565b600061217961217484612085565b61206a565b9050808382526020820190506020840283018581111561219c5761219b611abe565b5b835b818110156121e357803567ffffffffffffffff8111156121c1576121c0611ab4565b5b8086016121ce8982612138565b8552602085019450505060208101905061219e565b5050509392505050565b60006121fa368484612166565b905092915050565b60008190508160005260206000209050919050565b60006020601f8301049050919050565b600082821b905092915050565b6000600883026122647fffffffffffffffffffffffffffffffffffffffffffffffffffffffffffffffff82612227565b61226e8683612227565b95508019841693508086168417925050509392505050565b6000819050919050565b60006122ab6122a66122a184611856565b612286565b611856565b9050919050565b6000819050919050565b6122c583612290565b6122d96122d1826122b2565b848454612234565b825550505050565b600090565b6122ee6122e1565b6122f98184846122bc565b505050565b5b8181101561231d576123126000826122e6565b6001810190506122ff565b5050565b601f8211156123625761233381612202565b61233c84612217565b8101602085101561234b578190505b61235f61235785612217565b8301826122fe565b50505b505050565b600082821c905092915050565b600061238560001984600802612367565b1980831691505092915050565b600061239e8383612374565b9150826002028217905092915050565b6123b7826118f7565b67ffffffffffffffff8111156123d0576123cf61200a565b5b6123da8254611f01565b6123e5828285612321565b600060209050601f8311600181146124185760008415612406578287015190505b6124108582612392565b865550612478565b601f19841661242686612202565b60005b8281101561244e57848901518255600182019150602085019450602081019050612429565b8683101561246b5784890151612467601f891682612374565b8355505b6001600288020188555050505b505050505050565b7f47616d65207769746820696420646f6573206e6f742065786973740000000000600082015250565b60006124b6601b83611902565b91506124c182612480565b602082019050919050565b600060208201905081810360008301526124e5816124a9565b9050919050565b7f496e76616c69642067616d652073746174757300000000000000000000000000600082015250565b6000612522601383611902565b915061252d826124ec565b602082019050919050565b6000602082019050818103600083015261255181612515565b9050919050565b600081905092915050565b600061256f8385612558565b935061257c8385846120e7565b82840190509392505050565b6000612595828486612563565b91508190509392505050565b600081546125ae81611f01565b6125b88186612558565b945060018216600081146125d357600181146125e85761261b565b60ff198316865281151582028601935061261b565b6125f185612202565b60005b83811015612613578154818901526001820191506020810190506125f4565b838801955050505b50505092915050565b600061263082846125a1565b915081905092915050565b7f4475706c69636174652073657269616c206b65797320617265206e6f7420616c60008201527f6c6f776564000000000000000000000000000000000000000000000000000000602082015250565b6000612697602583611902565b91506126a28261263b565b604082019050919050565b600060208201905081810360008301526126c68161268a565b9050919050565b7f4e487b7100000000000000000000000000000000000000000000000000000000600052601160045260246000fd5b600061270782611856565b91507fffffffffffffffffffffffffffffffffffffffffffffffffffffffffffffffff8203612739576127386126cd565b5b600182019050919050565b600082905092915050565b6127598383612744565b67ffffffffffffffff8111156127725761277161200a565b5b61277c8254611f01565b612787828285612321565b6000601f8311600181146127b657600084156127a4578287013590505b6127ae8582612392565b865550612816565b601f1984166127c486612202565b60005b828110156127ec578489013582556001820191506020850194506020810190506127c7565b868310156128095784890135612805601f891682612374565b8355505b6001600288020188555050505b50505050505050565b7f4e6f2062616c616e6365206f6e20616464726573730000000000000000000000600082015250565b6000612855601583611902565b91506128608261281f565b602082019050919050565b6000602082019050818103600083015261288481612848565b9050919050565b600081905092915050565b50565b60006128a660008361288b565b91506128b182612896565b600082019050919050565b60006128c782612899565b9150819050919050565b7f436c61696d206661696c65640000000000000000000000000000000000000000600082015250565b6000612907600c83611902565b9150612912826128d1565b602082019050919050565b60006020820190508181036000830152612936816128fa565b9050919050565b7f47616d65206973206e6f7420617661696c61626c650000000000000000000000600082015250565b6000612973601583611902565b915061297e8261293d565b602082019050919050565b600060208201905081810360008301526129a281612966565b9050919050565b7f496e636f727265637420457468657220616d6f756e742073656e740000000000600082015250565b60006129df601b83611902565b91506129ea826129a9565b602082019050919050565b60006020820190508181036000830152612a0e816129d2565b9050919050565b7f5061796d656e74206661696c6564000000000000000000000000000000000000600082015250565b6000612a4b600e83611902565b9150612a5682612a15565b602082019050919050565b60006020820190508181036000830152612a7a81612a3e565b9050919050565b6000612a8c82611856565b9150612a9783611856565b9250828203905081811115612aaf57612aae6126cd565b5b92915050565b6000612ac082611856565b9150612acb83611856565b9250828201905080821115612ae357612ae26126cd565b5b92915050565b600081549050612af881611f01565b9050919050565b60008190508160005260206000209050919050565b818103612b22575050612bfa565b612b2b82612ae9565b67ffffffffffffffff811115612b4457612b4361200a565b5b612b4e8254611f01565b612b59828285612321565b6000601f831160018114612b885760008415612b76578287015490505b612b808582612392565b865550612bf3565b601f198416612b9687612aff565b9650612ba186612202565b60005b82811015612bc957848901548255600182019150600185019450602081019050612ba4565b86831015612be65784890154612be2601f891682612374565b8355505b6001600288020188555050505b5050505050505b565b7f4e487b7100000000000000000000000000000000000000000000000000000000600052603160045260246000fd5b7f4e487b7100000000000000000000000000000000000000000000000000000000600052605160045260246000fdfea26469706673582212200c74ed8cab16e73e0636d3d1bf79c3475f84bbafaf744dce4c1dc9cf5b4ddbb864736f6c63430008130033",
  "linkReferences": {},
  "deployedLinkReferences": {}
}