{"contracts/GameShop.sol":{"GameShop":{"abi":[{"inputs":[],"stateMutability":"nonpayable","type":"constructor"},{"anonymous":false,"inputs":[{"indexed":true,"internalType":"address","name":"from","type":"address"},{"indexed":true,"internalType":"uint256","name":"price","type":"uint256"},{"indexed":true,"internalType":"uint256","name":"date","type":"uint256"}],"name":"Transaction","type":"event"},{"inputs":[{"internalType":"string","name":"_name","type":"string"},{"internalType":"uint256","name":"_price","type":"uint256"},{"internalType":"string[]","name":"_keys","type":"string[]"}],"name":"addGame","outputs":[],"stateMutability":"nonpayable","type":"function"},{"inputs":[{"internalType":"string","name":"_key","type":"string"},{"internalType":"uint256","name":"_gameId","type":"uint256"}],"name":"addSerialKey","outputs":[],"stateMutability":"nonpayable","type":"function"},{"inputs":[{"internalType":"uint256","name":"_id","type":"uint256"}],"name":"buyGame","outputs":[],"stateMutability":"payable","type":"function"},{"inputs":[],"name":"claimStoreFunds","outputs":[],"stateMutability":"payable","type":"function"},{"inputs":[],"name":"getContractBalance","outputs":[{"internalType":"uint256","name":"","type":"uint256"}],"stateMutability":"view","type":"function"},{"inputs":[],"name":"getCustomerGames","outputs":[{"components":[{"internalType":"uint256","name":"price","type":"uint256"},{"internalType":"string","name":"name","type":"string"},{"internalType":"string","name":"key","type":"string"}],"internalType":"struct GameShop.PurchasedGame[]","name":"","type":"tuple[]"}],"stateMutability":"view","type":"function"},{"inputs":[{"internalType":"uint256","name":"_index","type":"uint256"}],"name":"getGameInfo","outputs":[{"internalType":"string","name":"name","type":"string"},{"internalType":"uint256","name":"keys","type":"uint256"},{"internalType":"uint256","name":"price","type":"uint256"},{"internalType":"enum GameShop.GameStatus","name":"status","type":"uint8"},{"internalType":"uint256","name":"id","type":"uint256"}],"stateMutability":"view","type":"function"},{"inputs":[],"name":"getGamesCount","outputs":[{"internalType":"uint256","name":"","type":"uint256"}],"stateMutability":"view","type":"function"},{"inputs":[{"internalType":"uint256","name":"gameId","type":"uint256"}],"name":"getKeys","outputs":[{"internalType":"uint256","name":"","type":"uint256"}],"stateMutability":"view","type":"function"},{"inputs":[],"name":"getOwner","outputs":[{"internalType":"address","name":"","type":"address"}],"stateMutability":"view","type":"function"},{"inputs":[{"internalType":"uint256","name":"_id","type":"uint256"}],"name":"removeGame","outputs":[],"stateMutability":"nonpayable","type":"function"},{"inputs":[{"internalType":"address","name":"","type":"address"}],"name":"users","outputs":[{"internalType":"string","name":"name","type":"string"},{"internalType":"address","name":"userAddress","type":"address"}],"stateMutability":"view","type":"function"},{"stateMutability":"payable","type":"receive"}],"evm":{"bytecode":{"linkReferences":{},"object":"608060405234801561001057600080fd5b50336000806101000a81548173ffffffffffffffffffffffffffffffffffffffff021916908373ffffffffffffffffffffffffffffffffffffffff160217905550612c90806100606000396000f3fe6080604052600436106100ab5760003560e01c8063a54f110311610064578063a54f11031461021d578063a87430ba14610246578063ceb27ff214610284578063e7be97ac146102ad578063f7760517146102b7578063f8ea5adc146102d3576100f0565b806317b7a476146100f557806347e1d550146101205780636f9fb98a1461016157806373d312401461018c578063893d20e8146101b55780638d357fa3146101e0576100f0565b366100f0576100ee6040518060400160405280601881526020017f436f6e74726163742072656365697665642045746865722100000000000000008152506102fe565b005b600080fd5b34801561010157600080fd5b5061010a610397565b604051610117919061186f565b60405180910390f35b34801561012c57600080fd5b50610147600480360381019061014291906118ca565b6103a4565b6040516101589594939291906119fe565b60405180910390f35b34801561016d57600080fd5b506101766104f8565b604051610183919061186f565b60405180910390f35b34801561019857600080fd5b506101b360048036038101906101ae91906118ca565b610500565b005b3480156101c157600080fd5b506101ca6105df565b6040516101d79190611a99565b60405180910390f35b3480156101ec57600080fd5b50610207600480360381019061020291906118ca565b610608565b604051610214919061186f565b60405180910390f35b34801561022957600080fd5b50610244600480360381019061023f9190611b6f565b61063a565b005b34801561025257600080fd5b5061026d60048036038101906102689190611c30565b610855565b60405161027b929190611c5d565b60405180910390f35b34801561029057600080fd5b506102ab60048036038101906102a69190611c8d565b610921565b005b6102b5610d64565b005b6102d160048036038101906102cc91906118ca565b610f05565b005b3480156102df57600080fd5b506102e8611562565b6040516102f59190611e5f565b60405180910390f35b610394816040516024016103129190611e81565b6040516020818303038152906040527f41304fac000000000000000000000000000000000000000000000000000000007bffffffffffffffffffffffffffffffffffffffffffffffffffffffff19166020820180517bffffffffffffffffffffffffffffffffffffffffffffffffffffffff838183161783525050505061172c565b50565b6000600180549050905090565b6060600080600080600186815481106103c0576103bf611ea3565b5b90600052602060002090600502016002016103da87610608565b600188815481106103ee576103ed611ea3565b5b9060005260206000209060050201600101546001898154811061041457610413611ea3565b5b906000526020600020906005020160040160009054906101000a900460ff1660018a8154811061044757610446611ea3565b5b90600052602060002090600502016000015484805461046590611f01565b80601f016020809104026020016040519081016040528092919081815260200182805461049190611f01565b80156104de5780601f106104b3576101008083540402835291602001916104de565b820191906000526020600020905b8154815290600101906020018083116104c157829003601f168201915b505050505094509450945094509450945091939590929450565b600047905090565b60008054906101000a900473ffffffffffffffffffffffffffffffffffffffff1673ffffffffffffffffffffffffffffffffffffffff163373ffffffffffffffffffffffffffffffffffffffff161461058e576040517f08c379a000000000000000000000000000000000000000000000000000000000815260040161058590611f7e565b60405180910390fd5b6002600182815481106105a4576105a3611ea3565b5b906000526020600020906005020160040160006101000a81548160ff021916908360028111156105d7576105d6611987565b5b021790555050565b60008060009054906101000a900473ffffffffffffffffffffffffffffffffffffffff16905090565b60006001828154811061061e5761061d611ea3565b5b9060005260206000209060050201600301805490509050919050565b60008054906101000a900473ffffffffffffffffffffffffffffffffffffffff1673ffffffffffffffffffffffffffffffffffffffff163373ffffffffffffffffffffffffffffffffffffffff16146106c8576040517f08c379a00000000000000000000000000000000000000000000000000000000081526004016106bf90611f7e565b60405180910390fd5b600382829050111561070f576040517f08c379a000000000000000000000000000000000000000000000000000000000815260040161070690611fea565b60405180910390fd5b6000600180549050905060006040518060a0016040528083815260200186815260200188888080601f016020809104026020016040519081016040528093929190818152602001838380828437600081840152601f19601f82011690508083019250505050505050815260200185859061078991906121ed565b8152602001600160028111156107a2576107a1611987565b5b81525090506001819080600181540180825580915050600190039060005260206000209060050201600090919091909150600082015181600001556020820151816001015560408201518160020190816107fc91906123ae565b506060820151816003019080519060200190610819929190611772565b5060808201518160040160006101000a81548160ff0219169083600281111561084557610844611987565b5b0217905550505050505050505050565b600360205280600052604060002060009150905080600001805461087890611f01565b80601f01602080910402602001604051908101604052809291908181526020018280546108a490611f01565b80156108f15780601f106108c6576101008083540402835291602001916108f1565b820191906000526020600020905b8154815290600101906020018083116108d457829003601f168201915b5050505050908060010160009054906101000a900473ffffffffffffffffffffffffffffffffffffffff16905082565b60008054906101000a900473ffffffffffffffffffffffffffffffffffffffff1673ffffffffffffffffffffffffffffffffffffffff163373ffffffffffffffffffffffffffffffffffffffff16146109af576040517f08c379a00000000000000000000000000000000000000000000000000000000081526004016109a690611f7e565b60405180910390fd5b60018054905081106109f6576040517f08c379a00000000000000000000000000000000000000000000000000000000081526004016109ed906124cc565b60405180910390fd5b60016002811115610a0a57610a09611987565b5b60018281548110610a1e57610a1d611ea3565b5b906000526020600020906005020160040160009054906101000a900460ff166002811115610a4f57610a4e611987565b5b1480610ab1575060006002811115610a6a57610a69611987565b5b60018281548110610a7e57610a7d611ea3565b5b906000526020600020906005020160040160009054906101000a900460ff166002811115610aaf57610aae611987565b5b145b610af0576040517f08c379a0000000000000000000000000000000000000000000000000000000008152600401610ae790612538565b60405180910390fd5b6003610afb82610608565b10610b3b576040517f08c379a0000000000000000000000000000000000000000000000000000000008152600401610b3290611fea565b60405180910390fd5b60005b60018281548110610b5257610b51611ea3565b5b906000526020600020906005020160030180549050811015610c51578383604051602001610b81929190612588565b6040516020818303038152906040528051906020012060018381548110610bab57610baa611ea3565b5b90600052602060002090600502016003018281548110610bce57610bcd611ea3565b5b90600052602060002001604051602001610be89190612624565b6040516020818303038152906040528051906020012003610c3e576040517f08c379a0000000000000000000000000000000000000000000000000000000008152600401610c35906126ad565b60405180910390fd5b8080610c49906126fc565b915050610b3e565b5060018181548110610c6657610c65611ea3565b5b9060005260206000209060050201600301838390918060018154018082558091505060019003906000526020600020016000909192909192909192909192509182610cb292919061274f565b5060006002811115610cc757610cc6611987565b5b60018281548110610cdb57610cda611ea3565b5b906000526020600020906005020160040160009054906101000a900460ff166002811115610d0c57610d0b611987565b5b03610d5f576001808281548110610d2657610d25611ea3565b5b906000526020600020906005020160040160006101000a81548160ff02191690836002811115610d5957610d58611987565b5b02179055505b505050565b60008054906101000a900473ffffffffffffffffffffffffffffffffffffffff1673ffffffffffffffffffffffffffffffffffffffff163373ffffffffffffffffffffffffffffffffffffffff1614610df2576040517f08c379a0000000000000000000000000000000000000000000000000000000008152600401610de990611f7e565b60405180910390fd5b60004711610e35576040517f08c379a0000000000000000000000000000000000000000000000000000000008152600401610e2c9061286b565b60405180910390fd5b60008060009054906101000a900473ffffffffffffffffffffffffffffffffffffffff1673ffffffffffffffffffffffffffffffffffffffff1647604051610e7c906128bc565b60006040518083038185875af1925050503d8060008114610eb9576040519150601f19603f3d011682016040523d82523d6000602084013e610ebe565b606091505b5050905080610f02576040517f08c379a0000000000000000000000000000000000000000000000000000000008152600401610ef99061291d565b60405180910390fd5b50565b8060016002811115610f1a57610f19611987565b5b60018281548110610f2e57610f2d611ea3565b5b906000526020600020906005020160040160009054906101000a900460ff166002811115610f5f57610f5e611987565b5b14610f9f576040517f08c379a0000000000000000000000000000000000000000000000000000000008152600401610f9690612989565b60405180910390fd5b60018281548110610fb357610fb2611ea3565b5b9060005260206000209060050201600101543414611006576040517f08c379a0000000000000000000000000000000000000000000000000000000008152600401610ffd906129f5565b60405180910390fd5b60003073ffffffffffffffffffffffffffffffffffffffff166001848154811061103357611032611ea3565b5b906000526020600020906005020160010154604051611051906128bc565b60006040518083038185875af1925050503d806000811461108e576040519150601f19603f3d011682016040523d82523d6000602084013e611093565b606091505b50509050806110d7576040517f08c379a00000000000000000000000000000000000000000000000000000000081526004016110ce90612a61565b60405180910390fd5b60006040518060600160405280600186815481106110f8576110f7611ea3565b5b90600052602060002090600502016001015481526020016001868154811061112357611122611ea3565b5b9060005260206000209060050201600201805461113f90611f01565b80601f016020809104026020016040519081016040528092919081815260200182805461116b90611f01565b80156111b85780601f1061118d576101008083540402835291602001916111b8565b820191906000526020600020905b81548152906001019060200180831161119b57829003601f168201915b50505050508152602001600186815481106111d6576111d5611ea3565b5b90600052602060002090600502016003016000815481106111fa576111f9611ea3565b5b90600052602060002001805461120f90611f01565b80601f016020809104026020016040519081016040528092919081815260200182805461123b90611f01565b80156112885780601f1061125d57610100808354040283529160200191611288565b820191906000526020600020905b81548152906001019060200180831161126b57829003601f168201915b50505050508152509050600260003373ffffffffffffffffffffffffffffffffffffffff1673ffffffffffffffffffffffffffffffffffffffff16815260200190815260200160002081908060018154018082558091505060019003906000526020600020906003020160009091909190915060008201518160000155602082015181600101908161131a91906123ae565b50604082015181600201908161133091906123ae565b505050426001858154811061134857611347611ea3565b5b9060005260206000209060050201600101543373ffffffffffffffffffffffffffffffffffffffff167feb2094161225f2f6f8f4eb4bc6520b72e6cfce96c4490c22d6e960e07ed7300460405160405180910390a460005b60018086815481106113b5576113b4611ea3565b5b9060005260206000209060050201600301805490506113d49190612a81565b81101561148957600185815481106113ef576113ee611ea3565b5b906000526020600020906005020160030160018261140d9190612ab5565b8154811061141e5761141d611ea3565b5b906000526020600020016001868154811061143c5761143b611ea3565b5b9060005260206000209060050201600301828154811061145f5761145e611ea3565b5b9060005260206000200190816114759190612b14565b508080611481906126fc565b9150506113a0565b506001848154811061149e5761149d611ea3565b5b90600052602060002090600502016003018054806114bf576114be612bfc565b5b6001900381819060005260206000200160006114db91906117cb565b90556000600185815481106114f3576114f2611ea3565b5b9060005260206000209060050201600301805490500361155c5760006001858154811061152357611522611ea3565b5b906000526020600020906005020160040160006101000a81548160ff0219169083600281111561155657611555611987565b5b02179055505b50505050565b6060600260003373ffffffffffffffffffffffffffffffffffffffff1673ffffffffffffffffffffffffffffffffffffffff168152602001908152602001600020805480602002602001604051908101604052809291908181526020016000905b8282101561172357838290600052602060002090600302016040518060600160405290816000820154815260200160018201805461160090611f01565b80601f016020809104026020016040519081016040528092919081815260200182805461162c90611f01565b80156116795780601f1061164e57610100808354040283529160200191611679565b820191906000526020600020905b81548152906001019060200180831161165c57829003601f168201915b5050505050815260200160028201805461169290611f01565b80601f01602080910402602001604051908101604052809291908181526020018280546116be90611f01565b801561170b5780601f106116e05761010080835404028352916020019161170b565b820191906000526020600020905b8154815290600101906020018083116116ee57829003601f168201915b505050505081525050815260200190600101906115c3565b50505050905090565b6117438161173b611746611767565b63ffffffff16565b50565b60006a636f6e736f6c652e6c6f679050600080835160208501845afa505050565b61180b819050919050565b8280548282559060005260206000209081019282156117ba579160200282015b828111156117b95782518290816117a991906123ae565b5091602001919060010190611792565b5b5090506117c79190611815565b5090565b5080546117d790611f01565b6000825580601f106117e95750611808565b601f0160209004906000526020600020908101906118079190611839565b5b50565b611813612c2b565b565b5b80821115611835576000818161182c91906117cb565b50600101611816565b5090565b5b8082111561185257600081600090555060010161183a565b5090565b6000819050919050565b61186981611856565b82525050565b60006020820190506118846000830184611860565b92915050565b6000604051905090565b600080fd5b600080fd5b6118a781611856565b81146118b257600080fd5b50565b6000813590506118c48161189e565b92915050565b6000602082840312156118e0576118df611894565b5b60006118ee848285016118b5565b91505092915050565b600081519050919050565b600082825260208201905092915050565b60005b83811015611931578082015181840152602081019050611916565b60008484015250505050565b6000601f19601f8301169050919050565b6000611959826118f7565b6119638185611902565b9350611973818560208601611913565b61197c8161193d565b840191505092915050565b7f4e487b7100000000000000000000000000000000000000000000000000000000600052602160045260246000fd5b600381106119c7576119c6611987565b5b50565b60008190506119d8826119b6565b919050565b60006119e8826119ca565b9050919050565b6119f8816119dd565b82525050565b600060a0820190508181036000830152611a18818861194e565b9050611a276020830187611860565b611a346040830186611860565b611a4160608301856119ef565b611a4e6080830184611860565b9695505050505050565b600073ffffffffffffffffffffffffffffffffffffffff82169050919050565b6000611a8382611a58565b9050919050565b611a9381611a78565b82525050565b6000602082019050611aae6000830184611a8a565b92915050565b600080fd5b600080fd5b600080fd5b60008083601f840112611ad957611ad8611ab4565b5b8235905067ffffffffffffffff811115611af657611af5611ab9565b5b602083019150836001820283011115611b1257611b11611abe565b5b9250929050565b60008083601f840112611b2f57611b2e611ab4565b5b8235905067ffffffffffffffff811115611b4c57611b4b611ab9565b5b602083019150836020820283011115611b6857611b67611abe565b5b9250929050565b600080600080600060608688031215611b8b57611b8a611894565b5b600086013567ffffffffffffffff811115611ba957611ba8611899565b5b611bb588828901611ac3565b95509550506020611bc8888289016118b5565b935050604086013567ffffffffffffffff811115611be957611be8611899565b5b611bf588828901611b19565b92509250509295509295909350565b611c0d81611a78565b8114611c1857600080fd5b50565b600081359050611c2a81611c04565b92915050565b600060208284031215611c4657611c45611894565b5b6000611c5484828501611c1b565b91505092915050565b60006040820190508181036000830152611c77818561194e565b9050611c866020830184611a8a565b9392505050565b600080600060408486031215611ca657611ca5611894565b5b600084013567ffffffffffffffff811115611cc457611cc3611899565b5b611cd086828701611ac3565b93509350506020611ce3868287016118b5565b9150509250925092565b600081519050919050565b600082825260208201905092915050565b6000819050602082019050919050565b611d2281611856565b82525050565b600082825260208201905092915050565b6000611d44826118f7565b611d4e8185611d28565b9350611d5e818560208601611913565b611d678161193d565b840191505092915050565b6000606083016000830151611d8a6000860182611d19565b5060208301518482036020860152611da28282611d39565b91505060408301518482036040860152611dbc8282611d39565b9150508091505092915050565b6000611dd58383611d72565b905092915050565b6000602082019050919050565b6000611df582611ced565b611dff8185611cf8565b935083602082028501611e1185611d09565b8060005b85811015611e4d5784840389528151611e2e8582611dc9565b9450611e3983611ddd565b925060208a01995050600181019050611e15565b50829750879550505050505092915050565b60006020820190508181036000830152611e798184611dea565b905092915050565b60006020820190508181036000830152611e9b818461194e565b905092915050565b7f4e487b7100000000000000000000000000000000000000000000000000000000600052603260045260246000fd5b7f4e487b7100000000000000000000000000000000000000000000000000000000600052602260045260246000fd5b60006002820490506001821680611f1957607f821691505b602082108103611f2c57611f2b611ed2565b5b50919050565b7f5065726d697373696f6e2064656e696564000000000000000000000000000000600082015250565b6000611f68601183611902565b9150611f7382611f32565b602082019050919050565b60006020820190508181036000830152611f9781611f5b565b9050919050565b7f4d6178206e756d62657220666f722073657269616c206b657973206973203300600082015250565b6000611fd4601f83611902565b9150611fdf82611f9e565b602082019050919050565b6000602082019050818103600083015261200381611fc7565b9050919050565b7f4e487b7100000000000000000000000000000000000000000000000000000000600052604160045260246000fd5b6120428261193d565b810181811067ffffffffffffffff821117156120615761206061200a565b5b80604052505050565b600061207461188a565b90506120808282612039565b919050565b600067ffffffffffffffff8211156120a05761209f61200a565b5b602082029050602081019050919050565b600080fd5b600067ffffffffffffffff8211156120d1576120d061200a565b5b6120da8261193d565b9050602081019050919050565b82818337600083830152505050565b6000612109612104846120b6565b61206a565b905082815260208101848484011115612125576121246120b1565b5b6121308482856120e7565b509392505050565b600082601f83011261214d5761214c611ab4565b5b813561215d8482602086016120f6565b91505092915050565b600061217961217484612085565b61206a565b9050808382526020820190506020840283018581111561219c5761219b611abe565b5b835b818110156121e357803567ffffffffffffffff8111156121c1576121c0611ab4565b5b8086016121ce8982612138565b8552602085019450505060208101905061219e565b5050509392505050565b60006121fa368484612166565b905092915050565b60008190508160005260206000209050919050565b60006020601f8301049050919050565b600082821b905092915050565b6000600883026122647fffffffffffffffffffffffffffffffffffffffffffffffffffffffffffffffff82612227565b61226e8683612227565b95508019841693508086168417925050509392505050565b6000819050919050565b60006122ab6122a66122a184611856565b612286565b611856565b9050919050565b6000819050919050565b6122c583612290565b6122d96122d1826122b2565b848454612234565b825550505050565b600090565b6122ee6122e1565b6122f98184846122bc565b505050565b5b8181101561231d576123126000826122e6565b6001810190506122ff565b5050565b601f8211156123625761233381612202565b61233c84612217565b8101602085101561234b578190505b61235f61235785612217565b8301826122fe565b50505b505050565b600082821c905092915050565b600061238560001984600802612367565b1980831691505092915050565b600061239e8383612374565b9150826002028217905092915050565b6123b7826118f7565b67ffffffffffffffff8111156123d0576123cf61200a565b5b6123da8254611f01565b6123e5828285612321565b600060209050601f8311600181146124185760008415612406578287015190505b6124108582612392565b865550612478565b601f19841661242686612202565b60005b8281101561244e57848901518255600182019150602085019450602081019050612429565b8683101561246b5784890151612467601f891682612374565b8355505b6001600288020188555050505b505050505050565b7f47616d65207769746820696420646f6573206e6f742065786973740000000000600082015250565b60006124b6601b83611902565b91506124c182612480565b602082019050919050565b600060208201905081810360008301526124e5816124a9565b9050919050565b7f496e76616c69642067616d652073746174757300000000000000000000000000600082015250565b6000612522601383611902565b915061252d826124ec565b602082019050919050565b6000602082019050818103600083015261255181612515565b9050919050565b600081905092915050565b600061256f8385612558565b935061257c8385846120e7565b82840190509392505050565b6000612595828486612563565b91508190509392505050565b600081546125ae81611f01565b6125b88186612558565b945060018216600081146125d357600181146125e85761261b565b60ff198316865281151582028601935061261b565b6125f185612202565b60005b83811015612613578154818901526001820191506020810190506125f4565b838801955050505b50505092915050565b600061263082846125a1565b915081905092915050565b7f4475706c69636174652073657269616c206b65797320617265206e6f7420616c60008201527f6c6f776564000000000000000000000000000000000000000000000000000000602082015250565b6000612697602583611902565b91506126a28261263b565b604082019050919050565b600060208201905081810360008301526126c68161268a565b9050919050565b7f4e487b7100000000000000000000000000000000000000000000000000000000600052601160045260246000fd5b600061270782611856565b91507fffffffffffffffffffffffffffffffffffffffffffffffffffffffffffffffff8203612739576127386126cd565b5b600182019050919050565b600082905092915050565b6127598383612744565b67ffffffffffffffff8111156127725761277161200a565b5b61277c8254611f01565b612787828285612321565b6000601f8311600181146127b657600084156127a4578287013590505b6127ae8582612392565b865550612816565b601f1984166127c486612202565b60005b828110156127ec578489013582556001820191506020850194506020810190506127c7565b868310156128095784890135612805601f891682612374565b8355505b6001600288020188555050505b50505050505050565b7f4e6f2062616c616e6365206f6e20616464726573730000000000000000000000600082015250565b6000612855601583611902565b91506128608261281f565b602082019050919050565b6000602082019050818103600083015261288481612848565b9050919050565b600081905092915050565b50565b60006128a660008361288b565b91506128b182612896565b600082019050919050565b60006128c782612899565b9150819050919050565b7f436c61696d206661696c65640000000000000000000000000000000000000000600082015250565b6000612907600c83611902565b9150612912826128d1565b602082019050919050565b60006020820190508181036000830152612936816128fa565b9050919050565b7f47616d65206973206e6f7420617661696c61626c650000000000000000000000600082015250565b6000612973601583611902565b915061297e8261293d565b602082019050919050565b600060208201905081810360008301526129a281612966565b9050919050565b7f496e636f727265637420457468657220616d6f756e742073656e740000000000600082015250565b60006129df601b83611902565b91506129ea826129a9565b602082019050919050565b60006020820190508181036000830152612a0e816129d2565b9050919050565b7f5061796d656e74206661696c6564000000000000000000000000000000000000600082015250565b6000612a4b600e83611902565b9150612a5682612a15565b602082019050919050565b60006020820190508181036000830152612a7a81612a3e565b9050919050565b6000612a8c82611856565b9150612a9783611856565b9250828203905081811115612aaf57612aae6126cd565b5b92915050565b6000612ac082611856565b9150612acb83611856565b9250828201905080821115612ae357612ae26126cd565b5b92915050565b600081549050612af881611f01565b9050919050565b60008190508160005260206000209050919050565b818103612b22575050612bfa565b612b2b82612ae9565b67ffffffffffffffff811115612b4457612b4361200a565b5b612b4e8254611f01565b612b59828285612321565b6000601f831160018114612b885760008415612b76578287015490505b612b808582612392565b865550612bf3565b601f198416612b9687612aff565b9650612ba186612202565b60005b82811015612bc957848901548255600182019150600185019450602081019050612ba4565b86831015612be65784890154612be2601f891682612374565b8355505b6001600288020188555050505b5050505050505b565b7f4e487b7100000000000000000000000000000000000000000000000000000000600052603160045260246000fd5b7f4e487b7100000000000000000000000000000000000000000000000000000000600052605160045260246000fdfea26469706673582212200c74ed8cab16e73e0636d3d1bf79c3475f84bbafaf744dce4c1dc9cf5b4ddbb864736f6c63430008130033","opcodes":"PUSH1 0x80 PUSH1 0x40 MSTORE CALLVALUE DUP1 ISZERO PUSH2 0x10 JUMPI PUSH1 0x0 DUP1 REVERT JUMPDEST POP CALLER PUSH1 0x0 DUP1 PUSH2 0x100 EXP DUP2 SLOAD DUP2 PUSH20 0xFFFFFFFFFFFFFFFFFFFFFFFFFFFFFFFFFFFFFFFF MUL NOT AND SWAP1 DUP4 PUSH20 0xFFFFFFFFFFFFFFFFFFFFFFFFFFFFFFFFFFFFFFFF AND MUL OR SWAP1 SSTORE POP PUSH2 0x2C90 DUP1 PUSH2 0x60 PUSH1 0x0 CODECOPY PUSH1 0x0 RETURN INVALID PUSH1 0x80 PUSH1 0x40 MSTORE PUSH1 0x4 CALLDATASIZE LT PUSH2 0xAB JUMPI PUSH1 0x0 CALLDATALOAD PUSH1 0xE0 SHR DUP1 PUSH4 0xA54F1103 GT PUSH2 0x64 JUMPI DUP1 PUSH4 0xA54F1103 EQ PUSH2 0x21D JUMPI DUP1 PUSH4 0xA87430BA EQ PUSH2 0x246 JUMPI DUP1 PUSH4 0xCEB27FF2 EQ PUSH2 0x284 JUMPI DUP1 PUSH4 0xE7BE97AC EQ PUSH2 0x2AD JUMPI DUP1 PUSH4 0xF7760517 EQ PUSH2 0x2B7 JUMPI DUP1 PUSH4 0xF8EA5ADC EQ PUSH2 0x2D3 JUMPI PUSH2 0xF0 JUMP JUMPDEST DUP1 PUSH4 0x17B7A476 EQ PUSH2 0xF5 JUMPI DUP1 PUSH4 0x47E1D550 EQ PUSH2 0x120 JUMPI DUP1 PUSH4 0x6F9FB98A EQ PUSH2 0x161 JUMPI DUP1 PUSH4 0x73D31240 EQ PUSH2 0x18C JUMPI DUP1 PUSH4 0x893D20E8 EQ PUSH2 0x1B5 JUMPI DUP1 PUSH4 0x8D357FA3 EQ PUSH2 0x1E0 JUMPI PUSH2 0xF0 JUMP JUMPDEST CALLDATASIZE PUSH2 0xF0 JUMPI PUSH2 0xEE PUSH1 0x40 MLOAD DUP1 PUSH1 0x40 ADD PUSH1 0x40 MSTORE DUP1 PUSH1 0x18 DUP2 MSTORE PUSH1 0x20 ADD PUSH32 0x436F6E7472616374207265636569766564204574686572210000000000000000 DUP2 MSTORE POP PUSH2 0x2FE JUMP JUMPDEST STOP JUMPDEST PUSH1 0x0 DUP1 REVERT JUMPDEST CALLVALUE DUP1 ISZERO PUSH2 0x101 JUMPI PUSH1 0x0 DUP1 REVERT JUMPDEST POP PUSH2 0x10A PUSH2 0x397 JUMP JUMPDEST PUSH1 0x40 MLOAD PUSH2 0x117 SWAP2 SWAP1 PUSH2 0x186F JUMP JUMPDEST PUSH1 0x40 MLOAD DUP1 SWAP2 SUB SWAP1 RETURN JUMPDEST CALLVALUE DUP1 ISZERO PUSH2 0x12C JUMPI PUSH1 0x0 DUP1 REVERT JUMPDEST POP PUSH2 0x147 PUSH1 0x4 DUP1 CALLDATASIZE SUB DUP2 ADD SWAP1 PUSH2 0x142 SWAP2 SWAP1 PUSH2 0x18CA JUMP JUMPDEST PUSH2 0x3A4 JUMP JUMPDEST PUSH1 0x40 MLOAD PUSH2 0x158 SWAP6 SWAP5 SWAP4 SWAP3 SWAP2 SWAP1 PUSH2 0x19FE JUMP JUMPDEST PUSH1 0x40 MLOAD DUP1 SWAP2 SUB SWAP1 RETURN JUMPDEST CALLVALUE DUP1 ISZERO PUSH2 0x16D JUMPI PUSH1 0x0 DUP1 REVERT JUMPDEST POP PUSH2 0x176 PUSH2 0x4F8 JUMP JUMPDEST PUSH1 0x40 MLOAD PUSH2 0x183 SWAP2 SWAP1 PUSH2 0x186F JUMP JUMPDEST PUSH1 0x40 MLOAD DUP1 SWAP2 SUB SWAP1 RETURN JUMPDEST CALLVALUE DUP1 ISZERO PUSH2 0x198 JUMPI PUSH1 0x0 DUP1 REVERT JUMPDEST POP PUSH2 0x1B3 PUSH1 0x4 DUP1 CALLDATASIZE SUB DUP2 ADD SWAP1 PUSH2 0x1AE SWAP2 SWAP1 PUSH2 0x18CA JUMP JUMPDEST PUSH2 0x500 JUMP JUMPDEST STOP JUMPDEST CALLVALUE DUP1 ISZERO PUSH2 0x1C1 JUMPI PUSH1 0x0 DUP1 REVERT JUMPDEST POP PUSH2 0x1CA PUSH2 0x5DF JUMP JUMPDEST PUSH1 0x40 MLOAD PUSH2 0x1D7 SWAP2 SWAP1 PUSH2 0x1A99 JUMP JUMPDEST PUSH1 0x40 MLOAD DUP1 SWAP2 SUB SWAP1 RETURN JUMPDEST CALLVALUE DUP1 ISZERO PUSH2 0x1EC JUMPI PUSH1 0x0 DUP1 REVERT JUMPDEST POP PUSH2 0x207 PUSH1 0x4 DUP1 CALLDATASIZE SUB DUP2 ADD SWAP1 PUSH2 0x202 SWAP2 SWAP1 PUSH2 0x18CA JUMP JUMPDEST PUSH2 0x608 JUMP JUMPDEST PUSH1 0x40 MLOAD PUSH2 0x214 SWAP2 SWAP1 PUSH2 0x186F JUMP JUMPDEST PUSH1 0x40 MLOAD DUP1 SWAP2 SUB SWAP1 RETURN JUMPDEST CALLVALUE DUP1 ISZERO PUSH2 0x229 JUMPI PUSH1 0x0 DUP1 REVERT JUMPDEST POP PUSH2 0x244 PUSH1 0x4 DUP1 CALLDATASIZE SUB DUP2 ADD SWAP1 PUSH2 0x23F SWAP2 SWAP1 PUSH2 0x1B6F JUMP JUMPDEST PUSH2 0x63A JUMP JUMPDEST STOP JUMPDEST CALLVALUE DUP1 ISZERO PUSH2 0x252 JUMPI PUSH1 0x0 DUP1 REVERT JUMPDEST POP PUSH2 0x26D PUSH1 0x4 DUP1 CALLDATASIZE SUB DUP2 ADD SWAP1 PUSH2 0x268 SWAP2 SWAP1 PUSH2 0x1C30 JUMP JUMPDEST PUSH2 0x855 JUMP JUMPDEST PUSH1 0x40 MLOAD PUSH2 0x27B SWAP3 SWAP2 SWAP1 PUSH2 0x1C5D JUMP JUMPDEST PUSH1 0x40 MLOAD DUP1 SWAP2 SUB SWAP1 RETURN JUMPDEST CALLVALUE DUP1 ISZERO PUSH2 0x290 JUMPI PUSH1 0x0 DUP1 REVERT JUMPDEST POP PUSH2 0x2AB PUSH1 0x4 DUP1 CALLDATASIZE SUB DUP2 ADD SWAP1 PUSH2 0x2A6 SWAP2 SWAP1 PUSH2 0x1C8D JUMP JUMPDEST PUSH2 0x921 JUMP JUMPDEST STOP JUMPDEST PUSH2 0x2B5 PUSH2 0xD64 JUMP JUMPDEST STOP JUMPDEST PUSH2 0x2D1 PUSH1 0x4 DUP1 CALLDATASIZE SUB DUP2 ADD SWAP1 PUSH2 0x2CC SWAP2 SWAP1 PUSH2 0x18CA JUMP JUMPDEST PUSH2 0xF05 JUMP JUMPDEST STOP JUMPDEST CALLVALUE DUP1 ISZERO PUSH2 0x2DF JUMPI PUSH1 0x0 DUP1 REVERT JUMPDEST POP PUSH2 0x2E8 PUSH2 0x1562 JUMP JUMPDEST PUSH1 0x40 MLOAD PUSH2 0x2F5 SWAP2 SWAP1 PUSH2 0x1E5F JUMP JUMPDEST PUSH1 0x40 MLOAD DUP1 SWAP2 SUB SWAP1 RETURN JUMPDEST PUSH2 0x394 DUP2 PUSH1 0x40 MLOAD PUSH1 0x24 ADD PUSH2 0x312 SWAP2 SWAP1 PUSH2 0x1E81 JUMP JUMPDEST PUSH1 0x40 MLOAD PUSH1 0x20 DUP2 DUP4 SUB SUB DUP2 MSTORE SWAP1 PUSH1 0x40 MSTORE PUSH32 0x41304FAC00000000000000000000000000000000000000000000000000000000 PUSH28 0xFFFFFFFFFFFFFFFFFFFFFFFFFFFFFFFFFFFFFFFFFFFFFFFFFFFFFFFF NOT AND PUSH1 0x20 DUP3 ADD DUP1 MLOAD PUSH28 0xFFFFFFFFFFFFFFFFFFFFFFFFFFFFFFFFFFFFFFFFFFFFFFFFFFFFFFFF DUP4 DUP2 DUP4 AND OR DUP4 MSTORE POP POP POP POP PUSH2 0x172C JUMP JUMPDEST POP JUMP JUMPDEST PUSH1 0x0 PUSH1 0x1 DUP1 SLOAD SWAP1 POP SWAP1 POP SWAP1 JUMP JUMPDEST PUSH1 0x60 PUSH1 0x0 DUP1 PUSH1 0x0 DUP1 PUSH1 0x1 DUP7 DUP2 SLOAD DUP2 LT PUSH2 0x3C0 JUMPI PUSH2 0x3BF PUSH2 0x1EA3 JUMP JUMPDEST JUMPDEST SWAP1 PUSH1 0x0 MSTORE PUSH1 0x20 PUSH1 0x0 KECCAK256 SWAP1 PUSH1 0x5 MUL ADD PUSH1 0x2 ADD PUSH2 0x3DA DUP8 PUSH2 0x608 JUMP JUMPDEST PUSH1 0x1 DUP9 DUP2 SLOAD DUP2 LT PUSH2 0x3EE JUMPI PUSH2 0x3ED PUSH2 0x1EA3 JUMP JUMPDEST JUMPDEST SWAP1 PUSH1 0x0 MSTORE PUSH1 0x20 PUSH1 0x0 KECCAK256 SWAP1 PUSH1 0x5 MUL ADD PUSH1 0x1 ADD SLOAD PUSH1 0x1 DUP10 DUP2 SLOAD DUP2 LT PUSH2 0x414 JUMPI PUSH2 0x413 PUSH2 0x1EA3 JUMP JUMPDEST JUMPDEST SWAP1 PUSH1 0x0 MSTORE PUSH1 0x20 PUSH1 0x0 KECCAK256 SWAP1 PUSH1 0x5 MUL ADD PUSH1 0x4 ADD PUSH1 0x0 SWAP1 SLOAD SWAP1 PUSH2 0x100 EXP SWAP1 DIV PUSH1 0xFF AND PUSH1 0x1 DUP11 DUP2 SLOAD DUP2 LT PUSH2 0x447 JUMPI PUSH2 0x446 PUSH2 0x1EA3 JUMP JUMPDEST JUMPDEST SWAP1 PUSH1 0x0 MSTORE PUSH1 0x20 PUSH1 0x0 KECCAK256 SWAP1 PUSH1 0x5 MUL ADD PUSH1 0x0 ADD SLOAD DUP5 DUP1 SLOAD PUSH2 0x465 SWAP1 PUSH2 0x1F01 JUMP JUMPDEST DUP1 PUSH1 0x1F ADD PUSH1 0x20 DUP1 SWAP2 DIV MUL PUSH1 0x20 ADD PUSH1 0x40 MLOAD SWAP1 DUP2 ADD PUSH1 0x40 MSTORE DUP1 SWAP3 SWAP2 SWAP1 DUP2 DUP2 MSTORE PUSH1 0x20 ADD DUP3 DUP1 SLOAD PUSH2 0x491 SWAP1 PUSH2 0x1F01 JUMP JUMPDEST DUP1 ISZERO PUSH2 0x4DE JUMPI DUP1 PUSH1 0x1F LT PUSH2 0x4B3 JUMPI PUSH2 0x100 DUP1 DUP4 SLOAD DIV MUL DUP4 MSTORE SWAP2 PUSH1 0x20 ADD SWAP2 PUSH2 0x4DE JUMP JUMPDEST DUP3 ADD SWAP2 SWAP1 PUSH1 0x0 MSTORE PUSH1 0x20 PUSH1 0x0 KECCAK256 SWAP1 JUMPDEST DUP2 SLOAD DUP2 MSTORE SWAP1 PUSH1 0x1 ADD SWAP1 PUSH1 0x20 ADD DUP1 DUP4 GT PUSH2 0x4C1 JUMPI DUP3 SWAP1 SUB PUSH1 0x1F AND DUP3 ADD SWAP2 JUMPDEST POP POP POP POP POP SWAP5 POP SWAP5 POP SWAP5 POP SWAP5 POP SWAP5 POP SWAP5 POP SWAP2 SWAP4 SWAP6 SWAP1 SWAP3 SWAP5 POP JUMP JUMPDEST PUSH1 0x0 SELFBALANCE SWAP1 POP SWAP1 JUMP JUMPDEST PUSH1 0x0 DUP1 SLOAD SWAP1 PUSH2 0x100 EXP SWAP1 DIV PUSH20 0xFFFFFFFFFFFFFFFFFFFFFFFFFFFFFFFFFFFFFFFF AND PUSH20 0xFFFFFFFFFFFFFFFFFFFFFFFFFFFFFFFFFFFFFFFF AND CALLER PUSH20 0xFFFFFFFFFFFFFFFFFFFFFFFFFFFFFFFFFFFFFFFF AND EQ PUSH2 0x58E JUMPI PUSH1 0x40 MLOAD PUSH32 0x8C379A000000000000000000000000000000000000000000000000000000000 DUP2 MSTORE PUSH1 0x4 ADD PUSH2 0x585 SWAP1 PUSH2 0x1F7E JUMP JUMPDEST PUSH1 0x40 MLOAD DUP1 SWAP2 SUB SWAP1 REVERT JUMPDEST PUSH1 0x2 PUSH1 0x1 DUP3 DUP2 SLOAD DUP2 LT PUSH2 0x5A4 JUMPI PUSH2 0x5A3 PUSH2 0x1EA3 JUMP JUMPDEST JUMPDEST SWAP1 PUSH1 0x0 MSTORE PUSH1 0x20 PUSH1 0x0 KECCAK256 SWAP1 PUSH1 0x5 MUL ADD PUSH1 0x4 ADD PUSH1 0x0 PUSH2 0x100 EXP DUP2 SLOAD DUP2 PUSH1 0xFF MUL NOT AND SWAP1 DUP4 PUSH1 0x2 DUP2 GT ISZERO PUSH2 0x5D7 JUMPI PUSH2 0x5D6 PUSH2 0x1987 JUMP JUMPDEST JUMPDEST MUL OR SWAP1 SSTORE POP POP JUMP JUMPDEST PUSH1 0x0 DUP1 PUSH1 0x0 SWAP1 SLOAD SWAP1 PUSH2 0x100 EXP SWAP1 DIV PUSH20 0xFFFFFFFFFFFFFFFFFFFFFFFFFFFFFFFFFFFFFFFF AND SWAP1 POP SWAP1 JUMP JUMPDEST PUSH1 0x0 PUSH1 0x1 DUP3 DUP2 SLOAD DUP2 LT PUSH2 0x61E JUMPI PUSH2 0x61D PUSH2 0x1EA3 JUMP JUMPDEST JUMPDEST SWAP1 PUSH1 0x0 MSTORE PUSH1 0x20 PUSH1 0x0 KECCAK256 SWAP1 PUSH1 0x5 MUL ADD PUSH1 0x3 ADD DUP1 SLOAD SWAP1 POP SWAP1 POP SWAP2 SWAP1 POP JUMP JUMPDEST PUSH1 0x0 DUP1 SLOAD SWAP1 PUSH2 0x100 EXP SWAP1 DIV PUSH20 0xFFFFFFFFFFFFFFFFFFFFFFFFFFFFFFFFFFFFFFFF AND PUSH20 0xFFFFFFFFFFFFFFFFFFFFFFFFFFFFFFFFFFFFFFFF AND CALLER PUSH20 0xFFFFFFFFFFFFFFFFFFFFFFFFFFFFFFFFFFFFFFFF AND EQ PUSH2 0x6C8 JUMPI PUSH1 0x40 MLOAD PUSH32 0x8C379A000000000000000000000000000000000000000000000000000000000 DUP2 MSTORE PUSH1 0x4 ADD PUSH2 0x6BF SWAP1 PUSH2 0x1F7E JUMP JUMPDEST PUSH1 0x40 MLOAD DUP1 SWAP2 SUB SWAP1 REVERT JUMPDEST PUSH1 0x3 DUP3 DUP3 SWAP1 POP GT ISZERO PUSH2 0x70F JUMPI PUSH1 0x40 MLOAD PUSH32 0x8C379A000000000000000000000000000000000000000000000000000000000 DUP2 MSTORE PUSH1 0x4 ADD PUSH2 0x706 SWAP1 PUSH2 0x1FEA JUMP JUMPDEST PUSH1 0x40 MLOAD DUP1 SWAP2 SUB SWAP1 REVERT JUMPDEST PUSH1 0x0 PUSH1 0x1 DUP1 SLOAD SWAP1 POP SWAP1 POP PUSH1 0x0 PUSH1 0x40 MLOAD DUP1 PUSH1 0xA0 ADD PUSH1 0x40 MSTORE DUP1 DUP4 DUP2 MSTORE PUSH1 0x20 ADD DUP7 DUP2 MSTORE PUSH1 0x20 ADD DUP9 DUP9 DUP1 DUP1 PUSH1 0x1F ADD PUSH1 0x20 DUP1 SWAP2 DIV MUL PUSH1 0x20 ADD PUSH1 0x40 MLOAD SWAP1 DUP2 ADD PUSH1 0x40 MSTORE DUP1 SWAP4 SWAP3 SWAP2 SWAP1 DUP2 DUP2 MSTORE PUSH1 0x20 ADD DUP4 DUP4 DUP1 DUP3 DUP5 CALLDATACOPY PUSH1 0x0 DUP2 DUP5 ADD MSTORE PUSH1 0x1F NOT PUSH1 0x1F DUP3 ADD AND SWAP1 POP DUP1 DUP4 ADD SWAP3 POP POP POP POP POP POP POP DUP2 MSTORE PUSH1 0x20 ADD DUP6 DUP6 SWAP1 PUSH2 0x789 SWAP2 SWAP1 PUSH2 0x21ED JUMP JUMPDEST DUP2 MSTORE PUSH1 0x20 ADD PUSH1 0x1 PUSH1 0x2 DUP2 GT ISZERO PUSH2 0x7A2 JUMPI PUSH2 0x7A1 PUSH2 0x1987 JUMP JUMPDEST JUMPDEST DUP2 MSTORE POP SWAP1 POP PUSH1 0x1 DUP2 SWAP1 DUP1 PUSH1 0x1 DUP2 SLOAD ADD DUP1 DUP3 SSTORE DUP1 SWAP2 POP POP PUSH1 0x1 SWAP1 SUB SWAP1 PUSH1 0x0 MSTORE PUSH1 0x20 PUSH1 0x0 KECCAK256 SWAP1 PUSH1 0x5 MUL ADD PUSH1 0x0 SWAP1 SWAP2 SWAP1 SWAP2 SWAP1 SWAP2 POP PUSH1 0x0 DUP3 ADD MLOAD DUP2 PUSH1 0x0 ADD SSTORE PUSH1 0x20 DUP3 ADD MLOAD DUP2 PUSH1 0x1 ADD SSTORE PUSH1 0x40 DUP3 ADD MLOAD DUP2 PUSH1 0x2 ADD SWAP1 DUP2 PUSH2 0x7FC SWAP2 SWAP1 PUSH2 0x23AE JUMP JUMPDEST POP PUSH1 0x60 DUP3 ADD MLOAD DUP2 PUSH1 0x3 ADD SWAP1 DUP1 MLOAD SWAP1 PUSH1 0x20 ADD SWAP1 PUSH2 0x819 SWAP3 SWAP2 SWAP1 PUSH2 0x1772 JUMP JUMPDEST POP PUSH1 0x80 DUP3 ADD MLOAD DUP2 PUSH1 0x4 ADD PUSH1 0x0 PUSH2 0x100 EXP DUP2 SLOAD DUP2 PUSH1 0xFF MUL NOT AND SWAP1 DUP4 PUSH1 0x2 DUP2 GT ISZERO PUSH2 0x845 JUMPI PUSH2 0x844 PUSH2 0x1987 JUMP JUMPDEST JUMPDEST MUL OR SWAP1 SSTORE POP POP POP POP POP POP POP POP POP POP JUMP JUMPDEST PUSH1 0x3 PUSH1 0x20 MSTORE DUP1 PUSH1 0x0 MSTORE PUSH1 0x40 PUSH1 0x0 KECCAK256 PUSH1 0x0 SWAP2 POP SWAP1 POP DUP1 PUSH1 0x0 ADD DUP1 SLOAD PUSH2 0x878 SWAP1 PUSH2 0x1F01 JUMP JUMPDEST DUP1 PUSH1 0x1F ADD PUSH1 0x20 DUP1 SWAP2 DIV MUL PUSH1 0x20 ADD PUSH1 0x40 MLOAD SWAP1 DUP2 ADD PUSH1 0x40 MSTORE DUP1 SWAP3 SWAP2 SWAP1 DUP2 DUP2 MSTORE PUSH1 0x20 ADD DUP3 DUP1 SLOAD PUSH2 0x8A4 SWAP1 PUSH2 0x1F01 JUMP JUMPDEST DUP1 ISZERO PUSH2 0x8F1 JUMPI DUP1 PUSH1 0x1F LT PUSH2 0x8C6 JUMPI PUSH2 0x100 DUP1 DUP4 SLOAD DIV MUL DUP4 MSTORE SWAP2 PUSH1 0x20 ADD SWAP2 PUSH2 0x8F1 JUMP JUMPDEST DUP3 ADD SWAP2 SWAP1 PUSH1 0x0 MSTORE PUSH1 0x20 PUSH1 0x0 KECCAK256 SWAP1 JUMPDEST DUP2 SLOAD DUP2 MSTORE SWAP1 PUSH1 0x1 ADD SWAP1 PUSH1 0x20 ADD DUP1 DUP4 GT PUSH2 0x8D4 JUMPI DUP3 SWAP1 SUB PUSH1 0x1F AND DUP3 ADD SWAP2 JUMPDEST POP POP POP POP POP SWAP1 DUP1 PUSH1 0x1 ADD PUSH1 0x0 SWAP1 SLOAD SWAP1 PUSH2 0x100 EXP SWAP1 DIV PUSH20 0xFFFFFFFFFFFFFFFFFFFFFFFFFFFFFFFFFFFFFFFF AND SWAP1 POP DUP3 JUMP JUMPDEST PUSH1 0x0 DUP1 SLOAD SWAP1 PUSH2 0x100 EXP SWAP1 DIV PUSH20 0xFFFFFFFFFFFFFFFFFFFFFFFFFFFFFFFFFFFFFFFF AND PUSH20 0xFFFFFFFFFFFFFFFFFFFFFFFFFFFFFFFFFFFFFFFF AND CALLER PUSH20 0xFFFFFFFFFFFFFFFFFFFFFFFFFFFFFFFFFFFFFFFF AND EQ PUSH2 0x9AF JUMPI PUSH1 0x40 MLOAD PUSH32 0x8C379A000000000000000000000000000000000000000000000000000000000 DUP2 MSTORE PUSH1 0x4 ADD PUSH2 0x9A6 SWAP1 PUSH2 0x1F7E JUMP JUMPDEST PUSH1 0x40 MLOAD DUP1 SWAP2 SUB SWAP1 REVERT JUMPDEST PUSH1 0x1 DUP1 SLOAD SWAP1 POP DUP2 LT PUSH2 0x9F6 JUMPI PUSH1 0x40 MLOAD PUSH32 0x8C379A000000000000000000000000000000000000000000000000000000000 DUP2 MSTORE PUSH1 0x4 ADD PUSH2 0x9ED SWAP1 PUSH2 0x24CC JUMP JUMPDEST PUSH1 0x40 MLOAD DUP1 SWAP2 SUB SWAP1 REVERT JUMPDEST PUSH1 0x1 PUSH1 0x2 DUP2 GT ISZERO PUSH2 0xA0A JUMPI PUSH2 0xA09 PUSH2 0x1987 JUMP JUMPDEST JUMPDEST PUSH1 0x1 DUP3 DUP2 SLOAD DUP2 LT PUSH2 0xA1E JUMPI PUSH2 0xA1D PUSH2 0x1EA3 JUMP JUMPDEST JUMPDEST SWAP1 PUSH1 0x0 MSTORE PUSH1 0x20 PUSH1 0x0 KECCAK256 SWAP1 PUSH1 0x5 MUL ADD PUSH1 0x4 ADD PUSH1 0x0 SWAP1 SLOAD SWAP1 PUSH2 0x100 EXP SWAP1 DIV PUSH1 0xFF AND PUSH1 0x2 DUP2 GT ISZERO PUSH2 0xA4F JUMPI PUSH2 0xA4E PUSH2 0x1987 JUMP JUMPDEST JUMPDEST EQ DUP1 PUSH2 0xAB1 JUMPI POP PUSH1 0x0 PUSH1 0x2 DUP2 GT ISZERO PUSH2 0xA6A JUMPI PUSH2 0xA69 PUSH2 0x1987 JUMP JUMPDEST JUMPDEST PUSH1 0x1 DUP3 DUP2 SLOAD DUP2 LT PUSH2 0xA7E JUMPI PUSH2 0xA7D PUSH2 0x1EA3 JUMP JUMPDEST JUMPDEST SWAP1 PUSH1 0x0 MSTORE PUSH1 0x20 PUSH1 0x0 KECCAK256 SWAP1 PUSH1 0x5 MUL ADD PUSH1 0x4 ADD PUSH1 0x0 SWAP1 SLOAD SWAP1 PUSH2 0x100 EXP SWAP1 DIV PUSH1 0xFF AND PUSH1 0x2 DUP2 GT ISZERO PUSH2 0xAAF JUMPI PUSH2 0xAAE PUSH2 0x1987 JUMP JUMPDEST JUMPDEST EQ JUMPDEST PUSH2 0xAF0 JUMPI PUSH1 0x40 MLOAD PUSH32 0x8C379A000000000000000000000000000000000000000000000000000000000 DUP2 MSTORE PUSH1 0x4 ADD PUSH2 0xAE7 SWAP1 PUSH2 0x2538 JUMP JUMPDEST PUSH1 0x40 MLOAD DUP1 SWAP2 SUB SWAP1 REVERT JUMPDEST PUSH1 0x3 PUSH2 0xAFB DUP3 PUSH2 0x608 JUMP JUMPDEST LT PUSH2 0xB3B JUMPI PUSH1 0x40 MLOAD PUSH32 0x8C379A000000000000000000000000000000000000000000000000000000000 DUP2 MSTORE PUSH1 0x4 ADD PUSH2 0xB32 SWAP1 PUSH2 0x1FEA JUMP JUMPDEST PUSH1 0x40 MLOAD DUP1 SWAP2 SUB SWAP1 REVERT JUMPDEST PUSH1 0x0 JUMPDEST PUSH1 0x1 DUP3 DUP2 SLOAD DUP2 LT PUSH2 0xB52 JUMPI PUSH2 0xB51 PUSH2 0x1EA3 JUMP JUMPDEST JUMPDEST SWAP1 PUSH1 0x0 MSTORE PUSH1 0x20 PUSH1 0x0 KECCAK256 SWAP1 PUSH1 0x5 MUL ADD PUSH1 0x3 ADD DUP1 SLOAD SWAP1 POP DUP2 LT ISZERO PUSH2 0xC51 JUMPI DUP4 DUP4 PUSH1 0x40 MLOAD PUSH1 0x20 ADD PUSH2 0xB81 SWAP3 SWAP2 SWAP1 PUSH2 0x2588 JUMP JUMPDEST PUSH1 0x40 MLOAD PUSH1 0x20 DUP2 DUP4 SUB SUB DUP2 MSTORE SWAP1 PUSH1 0x40 MSTORE DUP1 MLOAD SWAP1 PUSH1 0x20 ADD KECCAK256 PUSH1 0x1 DUP4 DUP2 SLOAD DUP2 LT PUSH2 0xBAB JUMPI PUSH2 0xBAA PUSH2 0x1EA3 JUMP JUMPDEST JUMPDEST SWAP1 PUSH1 0x0 MSTORE PUSH1 0x20 PUSH1 0x0 KECCAK256 SWAP1 PUSH1 0x5 MUL ADD PUSH1 0x3 ADD DUP3 DUP2 SLOAD DUP2 LT PUSH2 0xBCE JUMPI PUSH2 0xBCD PUSH2 0x1EA3 JUMP JUMPDEST JUMPDEST SWAP1 PUSH1 0x0 MSTORE PUSH1 0x20 PUSH1 0x0 KECCAK256 ADD PUSH1 0x40 MLOAD PUSH1 0x20 ADD PUSH2 0xBE8 SWAP2 SWAP1 PUSH2 0x2624 JUMP JUMPDEST PUSH1 0x40 MLOAD PUSH1 0x20 DUP2 DUP4 SUB SUB DUP2 MSTORE SWAP1 PUSH1 0x40 MSTORE DUP1 MLOAD SWAP1 PUSH1 0x20 ADD KECCAK256 SUB PUSH2 0xC3E JUMPI PUSH1 0x40 MLOAD PUSH32 0x8C379A000000000000000000000000000000000000000000000000000000000 DUP2 MSTORE PUSH1 0x4 ADD PUSH2 0xC35 SWAP1 PUSH2 0x26AD JUMP JUMPDEST PUSH1 0x40 MLOAD DUP1 SWAP2 SUB SWAP1 REVERT JUMPDEST DUP1 DUP1 PUSH2 0xC49 SWAP1 PUSH2 0x26FC JUMP JUMPDEST SWAP2 POP POP PUSH2 0xB3E JUMP JUMPDEST POP PUSH1 0x1 DUP2 DUP2 SLOAD DUP2 LT PUSH2 0xC66 JUMPI PUSH2 0xC65 PUSH2 0x1EA3 JUMP JUMPDEST JUMPDEST SWAP1 PUSH1 0x0 MSTORE PUSH1 0x20 PUSH1 0x0 KECCAK256 SWAP1 PUSH1 0x5 MUL ADD PUSH1 0x3 ADD DUP4 DUP4 SWAP1 SWAP2 DUP1 PUSH1 0x1 DUP2 SLOAD ADD DUP1 DUP3 SSTORE DUP1 SWAP2 POP POP PUSH1 0x1 SWAP1 SUB SWAP1 PUSH1 0x0 MSTORE PUSH1 0x20 PUSH1 0x0 KECCAK256 ADD PUSH1 0x0 SWAP1 SWAP2 SWAP3 SWAP1 SWAP2 SWAP3 SWAP1 SWAP2 SWAP3 SWAP1 SWAP2 SWAP3 POP SWAP2 DUP3 PUSH2 0xCB2 SWAP3 SWAP2 SWAP1 PUSH2 0x274F JUMP JUMPDEST POP PUSH1 0x0 PUSH1 0x2 DUP2 GT ISZERO PUSH2 0xCC7 JUMPI PUSH2 0xCC6 PUSH2 0x1987 JUMP JUMPDEST JUMPDEST PUSH1 0x1 DUP3 DUP2 SLOAD DUP2 LT PUSH2 0xCDB JUMPI PUSH2 0xCDA PUSH2 0x1EA3 JUMP JUMPDEST JUMPDEST SWAP1 PUSH1 0x0 MSTORE PUSH1 0x20 PUSH1 0x0 KECCAK256 SWAP1 PUSH1 0x5 MUL ADD PUSH1 0x4 ADD PUSH1 0x0 SWAP1 SLOAD SWAP1 PUSH2 0x100 EXP SWAP1 DIV PUSH1 0xFF AND PUSH1 0x2 DUP2 GT ISZERO PUSH2 0xD0C JUMPI PUSH2 0xD0B PUSH2 0x1987 JUMP JUMPDEST JUMPDEST SUB PUSH2 0xD5F JUMPI PUSH1 0x1 DUP1 DUP3 DUP2 SLOAD DUP2 LT PUSH2 0xD26 JUMPI PUSH2 0xD25 PUSH2 0x1EA3 JUMP JUMPDEST JUMPDEST SWAP1 PUSH1 0x0 MSTORE PUSH1 0x20 PUSH1 0x0 KECCAK256 SWAP1 PUSH1 0x5 MUL ADD PUSH1 0x4 ADD PUSH1 0x0 PUSH2 0x100 EXP DUP2 SLOAD DUP2 PUSH1 0xFF MUL NOT AND SWAP1 DUP4 PUSH1 0x2 DUP2 GT ISZERO PUSH2 0xD59 JUMPI PUSH2 0xD58 PUSH2 0x1987 JUMP JUMPDEST JUMPDEST MUL OR SWAP1 SSTORE POP JUMPDEST POP POP POP JUMP JUMPDEST PUSH1 0x0 DUP1 SLOAD SWAP1 PUSH2 0x100 EXP SWAP1 DIV PUSH20 0xFFFFFFFFFFFFFFFFFFFFFFFFFFFFFFFFFFFFFFFF AND PUSH20 0xFFFFFFFFFFFFFFFFFFFFFFFFFFFFFFFFFFFFFFFF AND CALLER PUSH20 0xFFFFFFFFFFFFFFFFFFFFFFFFFFFFFFFFFFFFFFFF AND EQ PUSH2 0xDF2 JUMPI PUSH1 0x40 MLOAD PUSH32 0x8C379A000000000000000000000000000000000000000000000000000000000 DUP2 MSTORE PUSH1 0x4 ADD PUSH2 0xDE9 SWAP1 PUSH2 0x1F7E JUMP JUMPDEST PUSH1 0x40 MLOAD DUP1 SWAP2 SUB SWAP1 REVERT JUMPDEST PUSH1 0x0 SELFBALANCE GT PUSH2 0xE35 JUMPI PUSH1 0x40 MLOAD PUSH32 0x8C379A000000000000000000000000000000000000000000000000000000000 DUP2 MSTORE PUSH1 0x4 ADD PUSH2 0xE2C SWAP1 PUSH2 0x286B JUMP JUMPDEST PUSH1 0x40 MLOAD DUP1 SWAP2 SUB SWAP1 REVERT JUMPDEST PUSH1 0x0 DUP1 PUSH1 0x0 SWAP1 SLOAD SWAP1 PUSH2 0x100 EXP SWAP1 DIV PUSH20 0xFFFFFFFFFFFFFFFFFFFFFFFFFFFFFFFFFFFFFFFF AND PUSH20 0xFFFFFFFFFFFFFFFFFFFFFFFFFFFFFFFFFFFFFFFF AND SELFBALANCE PUSH1 0x40 MLOAD PUSH2 0xE7C SWAP1 PUSH2 0x28BC JUMP JUMPDEST PUSH1 0x0 PUSH1 0x40 MLOAD DUP1 DUP4 SUB DUP2 DUP6 DUP8 GAS CALL SWAP3 POP POP POP RETURNDATASIZE DUP1 PUSH1 0x0 DUP2 EQ PUSH2 0xEB9 JUMPI PUSH1 0x40 MLOAD SWAP2 POP PUSH1 0x1F NOT PUSH1 0x3F RETURNDATASIZE ADD AND DUP3 ADD PUSH1 0x40 MSTORE RETURNDATASIZE DUP3 MSTORE RETURNDATASIZE PUSH1 0x0 PUSH1 0x20 DUP5 ADD RETURNDATACOPY PUSH2 0xEBE JUMP JUMPDEST PUSH1 0x60 SWAP2 POP JUMPDEST POP POP SWAP1 POP DUP1 PUSH2 0xF02 JUMPI PUSH1 0x40 MLOAD PUSH32 0x8C379A000000000000000000000000000000000000000000000000000000000 DUP2 MSTORE PUSH1 0x4 ADD PUSH2 0xEF9 SWAP1 PUSH2 0x291D JUMP JUMPDEST PUSH1 0x40 MLOAD DUP1 SWAP2 SUB SWAP1 REVERT JUMPDEST POP JUMP JUMPDEST DUP1 PUSH1 0x1 PUSH1 0x2 DUP2 GT ISZERO PUSH2 0xF1A JUMPI PUSH2 0xF19 PUSH2 0x1987 JUMP JUMPDEST JUMPDEST PUSH1 0x1 DUP3 DUP2 SLOAD DUP2 LT PUSH2 0xF2E JUMPI PUSH2 0xF2D PUSH2 0x1EA3 JUMP JUMPDEST JUMPDEST SWAP1 PUSH1 0x0 MSTORE PUSH1 0x20 PUSH1 0x0 KECCAK256 SWAP1 PUSH1 0x5 MUL ADD PUSH1 0x4 ADD PUSH1 0x0 SWAP1 SLOAD SWAP1 PUSH2 0x100 EXP SWAP1 DIV PUSH1 0xFF AND PUSH1 0x2 DUP2 GT ISZERO PUSH2 0xF5F JUMPI PUSH2 0xF5E PUSH2 0x1987 JUMP JUMPDEST JUMPDEST EQ PUSH2 0xF9F JUMPI PUSH1 0x40 MLOAD PUSH32 0x8C379A000000000000000000000000000000000000000000000000000000000 DUP2 MSTORE PUSH1 0x4 ADD PUSH2 0xF96 SWAP1 PUSH2 0x2989 JUMP JUMPDEST PUSH1 0x40 MLOAD DUP1 SWAP2 SUB SWAP1 REVERT JUMPDEST PUSH1 0x1 DUP3 DUP2 SLOAD DUP2 LT PUSH2 0xFB3 JUMPI PUSH2 0xFB2 PUSH2 0x1EA3 JUMP JUMPDEST JUMPDEST SWAP1 PUSH1 0x0 MSTORE PUSH1 0x20 PUSH1 0x0 KECCAK256 SWAP1 PUSH1 0x5 MUL ADD PUSH1 0x1 ADD SLOAD CALLVALUE EQ PUSH2 0x1006 JUMPI PUSH1 0x40 MLOAD PUSH32 0x8C379A000000000000000000000000000000000000000000000000000000000 DUP2 MSTORE PUSH1 0x4 ADD PUSH2 0xFFD SWAP1 PUSH2 0x29F5 JUMP JUMPDEST PUSH1 0x40 MLOAD DUP1 SWAP2 SUB SWAP1 REVERT JUMPDEST PUSH1 0x0 ADDRESS PUSH20 0xFFFFFFFFFFFFFFFFFFFFFFFFFFFFFFFFFFFFFFFF AND PUSH1 0x1 DUP5 DUP2 SLOAD DUP2 LT PUSH2 0x1033 JUMPI PUSH2 0x1032 PUSH2 0x1EA3 JUMP JUMPDEST JUMPDEST SWAP1 PUSH1 0x0 MSTORE PUSH1 0x20 PUSH1 0x0 KECCAK256 SWAP1 PUSH1 0x5 MUL ADD PUSH1 0x1 ADD SLOAD PUSH1 0x40 MLOAD PUSH2 0x1051 SWAP1 PUSH2 0x28BC JUMP JUMPDEST PUSH1 0x0 PUSH1 0x40 MLOAD DUP1 DUP4 SUB DUP2 DUP6 DUP8 GAS CALL SWAP3 POP POP POP RETURNDATASIZE DUP1 PUSH1 0x0 DUP2 EQ PUSH2 0x108E JUMPI PUSH1 0x40 MLOAD SWAP2 POP PUSH1 0x1F NOT PUSH1 0x3F RETURNDATASIZE ADD AND DUP3 ADD PUSH1 0x40 MSTORE RETURNDATASIZE DUP3 MSTORE RETURNDATASIZE PUSH1 0x0 PUSH1 0x20 DUP5 ADD RETURNDATACOPY PUSH2 0x1093 JUMP JUMPDEST PUSH1 0x60 SWAP2 POP JUMPDEST POP POP SWAP1 POP DUP1 PUSH2 0x10D7 JUMPI PUSH1 0x40 MLOAD PUSH32 0x8C379A000000000000000000000000000000000000000000000000000000000 DUP2 MSTORE PUSH1 0x4 ADD PUSH2 0x10CE SWAP1 PUSH2 0x2A61 JUMP JUMPDEST PUSH1 0x40 MLOAD DUP1 SWAP2 SUB SWAP1 REVERT JUMPDEST PUSH1 0x0 PUSH1 0x40 MLOAD DUP1 PUSH1 0x60 ADD PUSH1 0x40 MSTORE DUP1 PUSH1 0x1 DUP7 DUP2 SLOAD DUP2 LT PUSH2 0x10F8 JUMPI PUSH2 0x10F7 PUSH2 0x1EA3 JUMP JUMPDEST JUMPDEST SWAP1 PUSH1 0x0 MSTORE PUSH1 0x20 PUSH1 0x0 KECCAK256 SWAP1 PUSH1 0x5 MUL ADD PUSH1 0x1 ADD SLOAD DUP2 MSTORE PUSH1 0x20 ADD PUSH1 0x1 DUP7 DUP2 SLOAD DUP2 LT PUSH2 0x1123 JUMPI PUSH2 0x1122 PUSH2 0x1EA3 JUMP JUMPDEST JUMPDEST SWAP1 PUSH1 0x0 MSTORE PUSH1 0x20 PUSH1 0x0 KECCAK256 SWAP1 PUSH1 0x5 MUL ADD PUSH1 0x2 ADD DUP1 SLOAD PUSH2 0x113F SWAP1 PUSH2 0x1F01 JUMP JUMPDEST DUP1 PUSH1 0x1F ADD PUSH1 0x20 DUP1 SWAP2 DIV MUL PUSH1 0x20 ADD PUSH1 0x40 MLOAD SWAP1 DUP2 ADD PUSH1 0x40 MSTORE DUP1 SWAP3 SWAP2 SWAP1 DUP2 DUP2 MSTORE PUSH1 0x20 ADD DUP3 DUP1 SLOAD PUSH2 0x116B SWAP1 PUSH2 0x1F01 JUMP JUMPDEST DUP1 ISZERO PUSH2 0x11B8 JUMPI DUP1 PUSH1 0x1F LT PUSH2 0x118D JUMPI PUSH2 0x100 DUP1 DUP4 SLOAD DIV MUL DUP4 MSTORE SWAP2 PUSH1 0x20 ADD SWAP2 PUSH2 0x11B8 JUMP JUMPDEST DUP3 ADD SWAP2 SWAP1 PUSH1 0x0 MSTORE PUSH1 0x20 PUSH1 0x0 KECCAK256 SWAP1 JUMPDEST DUP2 SLOAD DUP2 MSTORE SWAP1 PUSH1 0x1 ADD SWAP1 PUSH1 0x20 ADD DUP1 DUP4 GT PUSH2 0x119B JUMPI DUP3 SWAP1 SUB PUSH1 0x1F AND DUP3 ADD SWAP2 JUMPDEST POP POP POP POP POP DUP2 MSTORE PUSH1 0x20 ADD PUSH1 0x1 DUP7 DUP2 SLOAD DUP2 LT PUSH2 0x11D6 JUMPI PUSH2 0x11D5 PUSH2 0x1EA3 JUMP JUMPDEST JUMPDEST SWAP1 PUSH1 0x0 MSTORE PUSH1 0x20 PUSH1 0x0 KECCAK256 SWAP1 PUSH1 0x5 MUL ADD PUSH1 0x3 ADD PUSH1 0x0 DUP2 SLOAD DUP2 LT PUSH2 0x11FA JUMPI PUSH2 0x11F9 PUSH2 0x1EA3 JUMP JUMPDEST JUMPDEST SWAP1 PUSH1 0x0 MSTORE PUSH1 0x20 PUSH1 0x0 KECCAK256 ADD DUP1 SLOAD PUSH2 0x120F SWAP1 PUSH2 0x1F01 JUMP JUMPDEST DUP1 PUSH1 0x1F ADD PUSH1 0x20 DUP1 SWAP2 DIV MUL PUSH1 0x20 ADD PUSH1 0x40 MLOAD SWAP1 DUP2 ADD PUSH1 0x40 MSTORE DUP1 SWAP3 SWAP2 SWAP1 DUP2 DUP2 MSTORE PUSH1 0x20 ADD DUP3 DUP1 SLOAD PUSH2 0x123B SWAP1 PUSH2 0x1F01 JUMP JUMPDEST DUP1 ISZERO PUSH2 0x1288 JUMPI DUP1 PUSH1 0x1F LT PUSH2 0x125D JUMPI PUSH2 0x100 DUP1 DUP4 SLOAD DIV MUL DUP4 MSTORE SWAP2 PUSH1 0x20 ADD SWAP2 PUSH2 0x1288 JUMP JUMPDEST DUP3 ADD SWAP2 SWAP1 PUSH1 0x0 MSTORE PUSH1 0x20 PUSH1 0x0 KECCAK256 SWAP1 JUMPDEST DUP2 SLOAD DUP2 MSTORE SWAP1 PUSH1 0x1 ADD SWAP1 PUSH1 0x20 ADD DUP1 DUP4 GT PUSH2 0x126B JUMPI DUP3 SWAP1 SUB PUSH1 0x1F AND DUP3 ADD SWAP2 JUMPDEST POP POP POP POP POP DUP2 MSTORE POP SWAP1 POP PUSH1 0x2 PUSH1 0x0 CALLER PUSH20 0xFFFFFFFFFFFFFFFFFFFFFFFFFFFFFFFFFFFFFFFF AND PUSH20 0xFFFFFFFFFFFFFFFFFFFFFFFFFFFFFFFFFFFFFFFF AND DUP2 MSTORE PUSH1 0x20 ADD SWAP1 DUP2 MSTORE PUSH1 0x20 ADD PUSH1 0x0 KECCAK256 DUP2 SWAP1 DUP1 PUSH1 0x1 DUP2 SLOAD ADD DUP1 DUP3 SSTORE DUP1 SWAP2 POP POP PUSH1 0x1 SWAP1 SUB SWAP1 PUSH1 0x0 MSTORE PUSH1 0x20 PUSH1 0x0 KECCAK256 SWAP1 PUSH1 0x3 MUL ADD PUSH1 0x0 SWAP1 SWAP2 SWAP1 SWAP2 SWAP1 SWAP2 POP PUSH1 0x0 DUP3 ADD MLOAD DUP2 PUSH1 0x0 ADD SSTORE PUSH1 0x20 DUP3 ADD MLOAD DUP2 PUSH1 0x1 ADD SWAP1 DUP2 PUSH2 0x131A SWAP2 SWAP1 PUSH2 0x23AE JUMP JUMPDEST POP PUSH1 0x40 DUP3 ADD MLOAD DUP2 PUSH1 0x2 ADD SWAP1 DUP2 PUSH2 0x1330 SWAP2 SWAP1 PUSH2 0x23AE JUMP JUMPDEST POP POP POP TIMESTAMP PUSH1 0x1 DUP6 DUP2 SLOAD DUP2 LT PUSH2 0x1348 JUMPI PUSH2 0x1347 PUSH2 0x1EA3 JUMP JUMPDEST JUMPDEST SWAP1 PUSH1 0x0 MSTORE PUSH1 0x20 PUSH1 0x0 KECCAK256 SWAP1 PUSH1 0x5 MUL ADD PUSH1 0x1 ADD SLOAD CALLER PUSH20 0xFFFFFFFFFFFFFFFFFFFFFFFFFFFFFFFFFFFFFFFF AND PUSH32 0xEB2094161225F2F6F8F4EB4BC6520B72E6CFCE96C4490C22D6E960E07ED73004 PUSH1 0x40 MLOAD PUSH1 0x40 MLOAD DUP1 SWAP2 SUB SWAP1 LOG4 PUSH1 0x0 JUMPDEST PUSH1 0x1 DUP1 DUP7 DUP2 SLOAD DUP2 LT PUSH2 0x13B5 JUMPI PUSH2 0x13B4 PUSH2 0x1EA3 JUMP JUMPDEST JUMPDEST SWAP1 PUSH1 0x0 MSTORE PUSH1 0x20 PUSH1 0x0 KECCAK256 SWAP1 PUSH1 0x5 MUL ADD PUSH1 0x3 ADD DUP1 SLOAD SWAP1 POP PUSH2 0x13D4 SWAP2 SWAP1 PUSH2 0x2A81 JUMP JUMPDEST DUP2 LT ISZERO PUSH2 0x1489 JUMPI PUSH1 0x1 DUP6 DUP2 SLOAD DUP2 LT PUSH2 0x13EF JUMPI PUSH2 0x13EE PUSH2 0x1EA3 JUMP JUMPDEST JUMPDEST SWAP1 PUSH1 0x0 MSTORE PUSH1 0x20 PUSH1 0x0 KECCAK256 SWAP1 PUSH1 0x5 MUL ADD PUSH1 0x3 ADD PUSH1 0x1 DUP3 PUSH2 0x140D SWAP2 SWAP1 PUSH2 0x2AB5 JUMP JUMPDEST DUP2 SLOAD DUP2 LT PUSH2 0x141E JUMPI PUSH2 0x141D PUSH2 0x1EA3 JUMP JUMPDEST JUMPDEST SWAP1 PUSH1 0x0 MSTORE PUSH1 0x20 PUSH1 0x0 KECCAK256 ADD PUSH1 0x1 DUP7 DUP2 SLOAD DUP2 LT PUSH2 0x143C JUMPI PUSH2 0x143B PUSH2 0x1EA3 JUMP JUMPDEST JUMPDEST SWAP1 PUSH1 0x0 MSTORE PUSH1 0x20 PUSH1 0x0 KECCAK256 SWAP1 PUSH1 0x5 MUL ADD PUSH1 0x3 ADD DUP3 DUP2 SLOAD DUP2 LT PUSH2 0x145F JUMPI PUSH2 0x145E PUSH2 0x1EA3 JUMP JUMPDEST JUMPDEST SWAP1 PUSH1 0x0 MSTORE PUSH1 0x20 PUSH1 0x0 KECCAK256 ADD SWAP1 DUP2 PUSH2 0x1475 SWAP2 SWAP1 PUSH2 0x2B14 JUMP JUMPDEST POP DUP1 DUP1 PUSH2 0x1481 SWAP1 PUSH2 0x26FC JUMP JUMPDEST SWAP2 POP POP PUSH2 0x13A0 JUMP JUMPDEST POP PUSH1 0x1 DUP5 DUP2 SLOAD DUP2 LT PUSH2 0x149E JUMPI PUSH2 0x149D PUSH2 0x1EA3 JUMP JUMPDEST JUMPDEST SWAP1 PUSH1 0x0 MSTORE PUSH1 0x20 PUSH1 0x0 KECCAK256 SWAP1 PUSH1 0x5 MUL ADD PUSH1 0x3 ADD DUP1 SLOAD DUP1 PUSH2 0x14BF JUMPI PUSH2 0x14BE PUSH2 0x2BFC JUMP JUMPDEST JUMPDEST PUSH1 0x1 SWAP1 SUB DUP2 DUP2 SWAP1 PUSH1 0x0 MSTORE PUSH1 0x20 PUSH1 0x0 KECCAK256 ADD PUSH1 0x0 PUSH2 0x14DB SWAP2 SWAP1 PUSH2 0x17CB JUMP JUMPDEST SWAP1 SSTORE PUSH1 0x0 PUSH1 0x1 DUP6 DUP2 SLOAD DUP2 LT PUSH2 0x14F3 JUMPI PUSH2 0x14F2 PUSH2 0x1EA3 JUMP JUMPDEST JUMPDEST SWAP1 PUSH1 0x0 MSTORE PUSH1 0x20 PUSH1 0x0 KECCAK256 SWAP1 PUSH1 0x5 MUL ADD PUSH1 0x3 ADD DUP1 SLOAD SWAP1 POP SUB PUSH2 0x155C JUMPI PUSH1 0x0 PUSH1 0x1 DUP6 DUP2 SLOAD DUP2 LT PUSH2 0x1523 JUMPI PUSH2 0x1522 PUSH2 0x1EA3 JUMP JUMPDEST JUMPDEST SWAP1 PUSH1 0x0 MSTORE PUSH1 0x20 PUSH1 0x0 KECCAK256 SWAP1 PUSH1 0x5 MUL ADD PUSH1 0x4 ADD PUSH1 0x0 PUSH2 0x100 EXP DUP2 SLOAD DUP2 PUSH1 0xFF MUL NOT AND SWAP1 DUP4 PUSH1 0x2 DUP2 GT ISZERO PUSH2 0x1556 JUMPI PUSH2 0x1555 PUSH2 0x1987 JUMP JUMPDEST JUMPDEST MUL OR SWAP1 SSTORE POP JUMPDEST POP POP POP POP JUMP JUMPDEST PUSH1 0x60 PUSH1 0x2 PUSH1 0x0 CALLER PUSH20 0xFFFFFFFFFFFFFFFFFFFFFFFFFFFFFFFFFFFFFFFF AND PUSH20 0xFFFFFFFFFFFFFFFFFFFFFFFFFFFFFFFFFFFFFFFF AND DUP2 MSTORE PUSH1 0x20 ADD SWAP1 DUP2 MSTORE PUSH1 0x20 ADD PUSH1 0x0 KECCAK256 DUP1 SLOAD DUP1 PUSH1 0x20 MUL PUSH1 0x20 ADD PUSH1 0x40 MLOAD SWAP1 DUP2 ADD PUSH1 0x40 MSTORE DUP1 SWAP3 SWAP2 SWAP1 DUP2 DUP2 MSTORE PUSH1 0x20 ADD PUSH1 0x0 SWAP1 JUMPDEST DUP3 DUP3 LT ISZERO PUSH2 0x1723 JUMPI DUP4 DUP3 SWAP1 PUSH1 0x0 MSTORE PUSH1 0x20 PUSH1 0x0 KECCAK256 SWAP1 PUSH1 0x3 MUL ADD PUSH1 0x40 MLOAD DUP1 PUSH1 0x60 ADD PUSH1 0x40 MSTORE SWAP1 DUP2 PUSH1 0x0 DUP3 ADD SLOAD DUP2 MSTORE PUSH1 0x20 ADD PUSH1 0x1 DUP3 ADD DUP1 SLOAD PUSH2 0x1600 SWAP1 PUSH2 0x1F01 JUMP JUMPDEST DUP1 PUSH1 0x1F ADD PUSH1 0x20 DUP1 SWAP2 DIV MUL PUSH1 0x20 ADD PUSH1 0x40 MLOAD SWAP1 DUP2 ADD PUSH1 0x40 MSTORE DUP1 SWAP3 SWAP2 SWAP1 DUP2 DUP2 MSTORE PUSH1 0x20 ADD DUP3 DUP1 SLOAD PUSH2 0x162C SWAP1 PUSH2 0x1F01 JUMP JUMPDEST DUP1 ISZERO PUSH2 0x1679 JUMPI DUP1 PUSH1 0x1F LT PUSH2 0x164E JUMPI PUSH2 0x100 DUP1 DUP4 SLOAD DIV MUL DUP4 MSTORE SWAP2 PUSH1 0x20 ADD SWAP2 PUSH2 0x1679 JUMP JUMPDEST DUP3 ADD SWAP2 SWAP1 PUSH1 0x0 MSTORE PUSH1 0x20 PUSH1 0x0 KECCAK256 SWAP1 JUMPDEST DUP2 SLOAD DUP2 MSTORE SWAP1 PUSH1 0x1 ADD SWAP1 PUSH1 0x20 ADD DUP1 DUP4 GT PUSH2 0x165C JUMPI DUP3 SWAP1 SUB PUSH1 0x1F AND DUP3 ADD SWAP2 JUMPDEST POP POP POP POP POP DUP2 MSTORE PUSH1 0x20 ADD PUSH1 0x2 DUP3 ADD DUP1 SLOAD PUSH2 0x1692 SWAP1 PUSH2 0x1F01 JUMP JUMPDEST DUP1 PUSH1 0x1F ADD PUSH1 0x20 DUP1 SWAP2 DIV MUL PUSH1 0x20 ADD PUSH1 0x40 MLOAD SWAP1 DUP2 ADD PUSH1 0x40 MSTORE DUP1 SWAP3 SWAP2 SWAP1 DUP2 DUP2 MSTORE PUSH1 0x20 ADD DUP3 DUP1 SLOAD PUSH2 0x16BE SWAP1 PUSH2 0x1F01 JUMP JUMPDEST DUP1 ISZERO PUSH2 0x170B JUMPI DUP1 PUSH1 0x1F LT PUSH2 0x16E0 JUMPI PUSH2 0x100 DUP1 DUP4 SLOAD DIV MUL DUP4 MSTORE SWAP2 PUSH1 0x20 ADD SWAP2 PUSH2 0x170B JUMP JUMPDEST DUP3 ADD SWAP2 SWAP1 PUSH1 0x0 MSTORE PUSH1 0x20 PUSH1 0x0 KECCAK256 SWAP1 JUMPDEST DUP2 SLOAD DUP2 MSTORE SWAP1 PUSH1 0x1 ADD SWAP1 PUSH1 0x20 ADD DUP1 DUP4 GT PUSH2 0x16EE JUMPI DUP3 SWAP1 SUB PUSH1 0x1F AND DUP3 ADD SWAP2 JUMPDEST POP POP POP POP POP DUP2 MSTORE POP POP DUP2 MSTORE PUSH1 0x20 ADD SWAP1 PUSH1 0x1 ADD SWAP1 PUSH2 0x15C3 JUMP JUMPDEST POP POP POP POP SWAP1 POP SWAP1 JUMP JUMPDEST PUSH2 0x1743 DUP2 PUSH2 0x173B PUSH2 0x1746 PUSH2 0x1767 JUMP JUMPDEST PUSH4 0xFFFFFFFF AND JUMP JUMPDEST POP JUMP JUMPDEST PUSH1 0x0 PUSH11 0x636F6E736F6C652E6C6F67 SWAP1 POP PUSH1 0x0 DUP1 DUP4 MLOAD PUSH1 0x20 DUP6 ADD DUP5 GAS STATICCALL POP POP POP JUMP JUMPDEST PUSH2 0x180B DUP2 SWAP1 POP SWAP2 SWAP1 POP JUMP JUMPDEST DUP3 DUP1 SLOAD DUP3 DUP3 SSTORE SWAP1 PUSH1 0x0 MSTORE PUSH1 0x20 PUSH1 0x0 KECCAK256 SWAP1 DUP2 ADD SWAP3 DUP3 ISZERO PUSH2 0x17BA JUMPI SWAP2 PUSH1 0x20 MUL DUP3 ADD JUMPDEST DUP3 DUP2 GT ISZERO PUSH2 0x17B9 JUMPI DUP3 MLOAD DUP3 SWAP1 DUP2 PUSH2 0x17A9 SWAP2 SWAP1 PUSH2 0x23AE JUMP JUMPDEST POP SWAP2 PUSH1 0x20 ADD SWAP2 SWAP1 PUSH1 0x1 ADD SWAP1 PUSH2 0x1792 JUMP JUMPDEST JUMPDEST POP SWAP1 POP PUSH2 0x17C7 SWAP2 SWAP1 PUSH2 0x1815 JUMP JUMPDEST POP SWAP1 JUMP JUMPDEST POP DUP1 SLOAD PUSH2 0x17D7 SWAP1 PUSH2 0x1F01 JUMP JUMPDEST PUSH1 0x0 DUP3 SSTORE DUP1 PUSH1 0x1F LT PUSH2 0x17E9 JUMPI POP PUSH2 0x1808 JUMP JUMPDEST PUSH1 0x1F ADD PUSH1 0x20 SWAP1 DIV SWAP1 PUSH1 0x0 MSTORE PUSH1 0x20 PUSH1 0x0 KECCAK256 SWAP1 DUP2 ADD SWAP1 PUSH2 0x1807 SWAP2 SWAP1 PUSH2 0x1839 JUMP JUMPDEST JUMPDEST POP JUMP JUMPDEST PUSH2 0x1813 PUSH2 0x2C2B JUMP JUMPDEST JUMP JUMPDEST JUMPDEST DUP1 DUP3 GT ISZERO PUSH2 0x1835 JUMPI PUSH1 0x0 DUP2 DUP2 PUSH2 0x182C SWAP2 SWAP1 PUSH2 0x17CB JUMP JUMPDEST POP PUSH1 0x1 ADD PUSH2 0x1816 JUMP JUMPDEST POP SWAP1 JUMP JUMPDEST JUMPDEST DUP1 DUP3 GT ISZERO PUSH2 0x1852 JUMPI PUSH1 0x0 DUP2 PUSH1 0x0 SWAP1 SSTORE POP PUSH1 0x1 ADD PUSH2 0x183A JUMP JUMPDEST POP SWAP1 JUMP JUMPDEST PUSH1 0x0 DUP2 SWAP1 POP SWAP2 SWAP1 POP JUMP JUMPDEST PUSH2 0x1869 DUP2 PUSH2 0x1856 JUMP JUMPDEST DUP3 MSTORE POP POP JUMP JUMPDEST PUSH1 0x0 PUSH1 0x20 DUP3 ADD SWAP1 POP PUSH2 0x1884 PUSH1 0x0 DUP4 ADD DUP5 PUSH2 0x1860 JUMP JUMPDEST SWAP3 SWAP2 POP POP JUMP JUMPDEST PUSH1 0x0 PUSH1 0x40 MLOAD SWAP1 POP SWAP1 JUMP JUMPDEST PUSH1 0x0 DUP1 REVERT JUMPDEST PUSH1 0x0 DUP1 REVERT JUMPDEST PUSH2 0x18A7 DUP2 PUSH2 0x1856 JUMP JUMPDEST DUP2 EQ PUSH2 0x18B2 JUMPI PUSH1 0x0 DUP1 REVERT JUMPDEST POP JUMP JUMPDEST PUSH1 0x0 DUP2 CALLDATALOAD SWAP1 POP PUSH2 0x18C4 DUP2 PUSH2 0x189E JUMP JUMPDEST SWAP3 SWAP2 POP POP JUMP JUMPDEST PUSH1 0x0 PUSH1 0x20 DUP3 DUP5 SUB SLT ISZERO PUSH2 0x18E0 JUMPI PUSH2 0x18DF PUSH2 0x1894 JUMP JUMPDEST JUMPDEST PUSH1 0x0 PUSH2 0x18EE DUP5 DUP3 DUP6 ADD PUSH2 0x18B5 JUMP JUMPDEST SWAP2 POP POP SWAP3 SWAP2 POP POP JUMP JUMPDEST PUSH1 0x0 DUP2 MLOAD SWAP1 POP SWAP2 SWAP1 POP JUMP JUMPDEST PUSH1 0x0 DUP3 DUP3 MSTORE PUSH1 0x20 DUP3 ADD SWAP1 POP SWAP3 SWAP2 POP POP JUMP JUMPDEST PUSH1 0x0 JUMPDEST DUP4 DUP2 LT ISZERO PUSH2 0x1931 JUMPI DUP1 DUP3 ADD MLOAD DUP2 DUP5 ADD MSTORE PUSH1 0x20 DUP2 ADD SWAP1 POP PUSH2 0x1916 JUMP JUMPDEST PUSH1 0x0 DUP5 DUP5 ADD MSTORE POP POP POP POP JUMP JUMPDEST PUSH1 0x0 PUSH1 0x1F NOT PUSH1 0x1F DUP4 ADD AND SWAP1 POP SWAP2 SWAP1 POP JUMP JUMPDEST PUSH1 0x0 PUSH2 0x1959 DUP3 PUSH2 0x18F7 JUMP JUMPDEST PUSH2 0x1963 DUP2 DUP6 PUSH2 0x1902 JUMP JUMPDEST SWAP4 POP PUSH2 0x1973 DUP2 DUP6 PUSH1 0x20 DUP7 ADD PUSH2 0x1913 JUMP JUMPDEST PUSH2 0x197C DUP2 PUSH2 0x193D JUMP JUMPDEST DUP5 ADD SWAP2 POP POP SWAP3 SWAP2 POP POP JUMP JUMPDEST PUSH32 0x4E487B7100000000000000000000000000000000000000000000000000000000 PUSH1 0x0 MSTORE PUSH1 0x21 PUSH1 0x4 MSTORE PUSH1 0x24 PUSH1 0x0 REVERT JUMPDEST PUSH1 0x3 DUP2 LT PUSH2 0x19C7 JUMPI PUSH2 0x19C6 PUSH2 0x1987 JUMP JUMPDEST JUMPDEST POP JUMP JUMPDEST PUSH1 0x0 DUP2 SWAP1 POP PUSH2 0x19D8 DUP3 PUSH2 0x19B6 JUMP JUMPDEST SWAP2 SWAP1 POP JUMP JUMPDEST PUSH1 0x0 PUSH2 0x19E8 DUP3 PUSH2 0x19CA JUMP JUMPDEST SWAP1 POP SWAP2 SWAP1 POP JUMP JUMPDEST PUSH2 0x19F8 DUP2 PUSH2 0x19DD JUMP JUMPDEST DUP3 MSTORE POP POP JUMP JUMPDEST PUSH1 0x0 PUSH1 0xA0 DUP3 ADD SWAP1 POP DUP2 DUP2 SUB PUSH1 0x0 DUP4 ADD MSTORE PUSH2 0x1A18 DUP2 DUP9 PUSH2 0x194E JUMP JUMPDEST SWAP1 POP PUSH2 0x1A27 PUSH1 0x20 DUP4 ADD DUP8 PUSH2 0x1860 JUMP JUMPDEST PUSH2 0x1A34 PUSH1 0x40 DUP4 ADD DUP7 PUSH2 0x1860 JUMP JUMPDEST PUSH2 0x1A41 PUSH1 0x60 DUP4 ADD DUP6 PUSH2 0x19EF JUMP JUMPDEST PUSH2 0x1A4E PUSH1 0x80 DUP4 ADD DUP5 PUSH2 0x1860 JUMP JUMPDEST SWAP7 SWAP6 POP POP POP POP POP POP JUMP JUMPDEST PUSH1 0x0 PUSH20 0xFFFFFFFFFFFFFFFFFFFFFFFFFFFFFFFFFFFFFFFF DUP3 AND SWAP1 POP SWAP2 SWAP1 POP JUMP JUMPDEST PUSH1 0x0 PUSH2 0x1A83 DUP3 PUSH2 0x1A58 JUMP JUMPDEST SWAP1 POP SWAP2 SWAP1 POP JUMP JUMPDEST PUSH2 0x1A93 DUP2 PUSH2 0x1A78 JUMP JUMPDEST DUP3 MSTORE POP POP JUMP JUMPDEST PUSH1 0x0 PUSH1 0x20 DUP3 ADD SWAP1 POP PUSH2 0x1AAE PUSH1 0x0 DUP4 ADD DUP5 PUSH2 0x1A8A JUMP JUMPDEST SWAP3 SWAP2 POP POP JUMP JUMPDEST PUSH1 0x0 DUP1 REVERT JUMPDEST PUSH1 0x0 DUP1 REVERT JUMPDEST PUSH1 0x0 DUP1 REVERT JUMPDEST PUSH1 0x0 DUP1 DUP4 PUSH1 0x1F DUP5 ADD SLT PUSH2 0x1AD9 JUMPI PUSH2 0x1AD8 PUSH2 0x1AB4 JUMP JUMPDEST JUMPDEST DUP3 CALLDATALOAD SWAP1 POP PUSH8 0xFFFFFFFFFFFFFFFF DUP2 GT ISZERO PUSH2 0x1AF6 JUMPI PUSH2 0x1AF5 PUSH2 0x1AB9 JUMP JUMPDEST JUMPDEST PUSH1 0x20 DUP4 ADD SWAP2 POP DUP4 PUSH1 0x1 DUP3 MUL DUP4 ADD GT ISZERO PUSH2 0x1B12 JUMPI PUSH2 0x1B11 PUSH2 0x1ABE JUMP JUMPDEST JUMPDEST SWAP3 POP SWAP3 SWAP1 POP JUMP JUMPDEST PUSH1 0x0 DUP1 DUP4 PUSH1 0x1F DUP5 ADD SLT PUSH2 0x1B2F JUMPI PUSH2 0x1B2E PUSH2 0x1AB4 JUMP JUMPDEST JUMPDEST DUP3 CALLDATALOAD SWAP1 POP PUSH8 0xFFFFFFFFFFFFFFFF DUP2 GT ISZERO PUSH2 0x1B4C JUMPI PUSH2 0x1B4B PUSH2 0x1AB9 JUMP JUMPDEST JUMPDEST PUSH1 0x20 DUP4 ADD SWAP2 POP DUP4 PUSH1 0x20 DUP3 MUL DUP4 ADD GT ISZERO PUSH2 0x1B68 JUMPI PUSH2 0x1B67 PUSH2 0x1ABE JUMP JUMPDEST JUMPDEST SWAP3 POP SWAP3 SWAP1 POP JUMP JUMPDEST PUSH1 0x0 DUP1 PUSH1 0x0 DUP1 PUSH1 0x0 PUSH1 0x60 DUP7 DUP9 SUB SLT ISZERO PUSH2 0x1B8B JUMPI PUSH2 0x1B8A PUSH2 0x1894 JUMP JUMPDEST JUMPDEST PUSH1 0x0 DUP7 ADD CALLDATALOAD PUSH8 0xFFFFFFFFFFFFFFFF DUP2 GT ISZERO PUSH2 0x1BA9 JUMPI PUSH2 0x1BA8 PUSH2 0x1899 JUMP JUMPDEST JUMPDEST PUSH2 0x1BB5 DUP9 DUP3 DUP10 ADD PUSH2 0x1AC3 JUMP JUMPDEST SWAP6 POP SWAP6 POP POP PUSH1 0x20 PUSH2 0x1BC8 DUP9 DUP3 DUP10 ADD PUSH2 0x18B5 JUMP JUMPDEST SWAP4 POP POP PUSH1 0x40 DUP7 ADD CALLDATALOAD PUSH8 0xFFFFFFFFFFFFFFFF DUP2 GT ISZERO PUSH2 0x1BE9 JUMPI PUSH2 0x1BE8 PUSH2 0x1899 JUMP JUMPDEST JUMPDEST PUSH2 0x1BF5 DUP9 DUP3 DUP10 ADD PUSH2 0x1B19 JUMP JUMPDEST SWAP3 POP SWAP3 POP POP SWAP3 SWAP6 POP SWAP3 SWAP6 SWAP1 SWAP4 POP JUMP JUMPDEST PUSH2 0x1C0D DUP2 PUSH2 0x1A78 JUMP JUMPDEST DUP2 EQ PUSH2 0x1C18 JUMPI PUSH1 0x0 DUP1 REVERT JUMPDEST POP JUMP JUMPDEST PUSH1 0x0 DUP2 CALLDATALOAD SWAP1 POP PUSH2 0x1C2A DUP2 PUSH2 0x1C04 JUMP JUMPDEST SWAP3 SWAP2 POP POP JUMP JUMPDEST PUSH1 0x0 PUSH1 0x20 DUP3 DUP5 SUB SLT ISZERO PUSH2 0x1C46 JUMPI PUSH2 0x1C45 PUSH2 0x1894 JUMP JUMPDEST JUMPDEST PUSH1 0x0 PUSH2 0x1C54 DUP5 DUP3 DUP6 ADD PUSH2 0x1C1B JUMP JUMPDEST SWAP2 POP POP SWAP3 SWAP2 POP POP JUMP JUMPDEST PUSH1 0x0 PUSH1 0x40 DUP3 ADD SWAP1 POP DUP2 DUP2 SUB PUSH1 0x0 DUP4 ADD MSTORE PUSH2 0x1C77 DUP2 DUP6 PUSH2 0x194E JUMP JUMPDEST SWAP1 POP PUSH2 0x1C86 PUSH1 0x20 DUP4 ADD DUP5 PUSH2 0x1A8A JUMP JUMPDEST SWAP4 SWAP3 POP POP POP JUMP JUMPDEST PUSH1 0x0 DUP1 PUSH1 0x0 PUSH1 0x40 DUP5 DUP7 SUB SLT ISZERO PUSH2 0x1CA6 JUMPI PUSH2 0x1CA5 PUSH2 0x1894 JUMP JUMPDEST JUMPDEST PUSH1 0x0 DUP5 ADD CALLDATALOAD PUSH8 0xFFFFFFFFFFFFFFFF DUP2 GT ISZERO PUSH2 0x1CC4 JUMPI PUSH2 0x1CC3 PUSH2 0x1899 JUMP JUMPDEST JUMPDEST PUSH2 0x1CD0 DUP7 DUP3 DUP8 ADD PUSH2 0x1AC3 JUMP JUMPDEST SWAP4 POP SWAP4 POP POP PUSH1 0x20 PUSH2 0x1CE3 DUP7 DUP3 DUP8 ADD PUSH2 0x18B5 JUMP JUMPDEST SWAP2 POP POP SWAP3 POP SWAP3 POP SWAP3 JUMP JUMPDEST PUSH1 0x0 DUP2 MLOAD SWAP1 POP SWAP2 SWAP1 POP JUMP JUMPDEST PUSH1 0x0 DUP3 DUP3 MSTORE PUSH1 0x20 DUP3 ADD SWAP1 POP SWAP3 SWAP2 POP POP JUMP JUMPDEST PUSH1 0x0 DUP2 SWAP1 POP PUSH1 0x20 DUP3 ADD SWAP1 POP SWAP2 SWAP1 POP JUMP JUMPDEST PUSH2 0x1D22 DUP2 PUSH2 0x1856 JUMP JUMPDEST DUP3 MSTORE POP POP JUMP JUMPDEST PUSH1 0x0 DUP3 DUP3 MSTORE PUSH1 0x20 DUP3 ADD SWAP1 POP SWAP3 SWAP2 POP POP JUMP JUMPDEST PUSH1 0x0 PUSH2 0x1D44 DUP3 PUSH2 0x18F7 JUMP JUMPDEST PUSH2 0x1D4E DUP2 DUP6 PUSH2 0x1D28 JUMP JUMPDEST SWAP4 POP PUSH2 0x1D5E DUP2 DUP6 PUSH1 0x20 DUP7 ADD PUSH2 0x1913 JUMP JUMPDEST PUSH2 0x1D67 DUP2 PUSH2 0x193D JUMP JUMPDEST DUP5 ADD SWAP2 POP POP SWAP3 SWAP2 POP POP JUMP JUMPDEST PUSH1 0x0 PUSH1 0x60 DUP4 ADD PUSH1 0x0 DUP4 ADD MLOAD PUSH2 0x1D8A PUSH1 0x0 DUP7 ADD DUP3 PUSH2 0x1D19 JUMP JUMPDEST POP PUSH1 0x20 DUP4 ADD MLOAD DUP5 DUP3 SUB PUSH1 0x20 DUP7 ADD MSTORE PUSH2 0x1DA2 DUP3 DUP3 PUSH2 0x1D39 JUMP JUMPDEST SWAP2 POP POP PUSH1 0x40 DUP4 ADD MLOAD DUP5 DUP3 SUB PUSH1 0x40 DUP7 ADD MSTORE PUSH2 0x1DBC DUP3 DUP3 PUSH2 0x1D39 JUMP JUMPDEST SWAP2 POP POP DUP1 SWAP2 POP POP SWAP3 SWAP2 POP POP JUMP JUMPDEST PUSH1 0x0 PUSH2 0x1DD5 DUP4 DUP4 PUSH2 0x1D72 JUMP JUMPDEST SWAP1 POP SWAP3 SWAP2 POP POP JUMP JUMPDEST PUSH1 0x0 PUSH1 0x20 DUP3 ADD SWAP1 POP SWAP2 SWAP1 POP JUMP JUMPDEST PUSH1 0x0 PUSH2 0x1DF5 DUP3 PUSH2 0x1CED JUMP JUMPDEST PUSH2 0x1DFF DUP2 DUP6 PUSH2 0x1CF8 JUMP JUMPDEST SWAP4 POP DUP4 PUSH1 0x20 DUP3 MUL DUP6 ADD PUSH2 0x1E11 DUP6 PUSH2 0x1D09 JUMP JUMPDEST DUP1 PUSH1 0x0 JUMPDEST DUP6 DUP2 LT ISZERO PUSH2 0x1E4D JUMPI DUP5 DUP5 SUB DUP10 MSTORE DUP2 MLOAD PUSH2 0x1E2E DUP6 DUP3 PUSH2 0x1DC9 JUMP JUMPDEST SWAP5 POP PUSH2 0x1E39 DUP4 PUSH2 0x1DDD JUMP JUMPDEST SWAP3 POP PUSH1 0x20 DUP11 ADD SWAP10 POP POP PUSH1 0x1 DUP2 ADD SWAP1 POP PUSH2 0x1E15 JUMP JUMPDEST POP DUP3 SWAP8 POP DUP8 SWAP6 POP POP POP POP POP POP SWAP3 SWAP2 POP POP JUMP JUMPDEST PUSH1 0x0 PUSH1 0x20 DUP3 ADD SWAP1 POP DUP2 DUP2 SUB PUSH1 0x0 DUP4 ADD MSTORE PUSH2 0x1E79 DUP2 DUP5 PUSH2 0x1DEA JUMP JUMPDEST SWAP1 POP SWAP3 SWAP2 POP POP JUMP JUMPDEST PUSH1 0x0 PUSH1 0x20 DUP3 ADD SWAP1 POP DUP2 DUP2 SUB PUSH1 0x0 DUP4 ADD MSTORE PUSH2 0x1E9B DUP2 DUP5 PUSH2 0x194E JUMP JUMPDEST SWAP1 POP SWAP3 SWAP2 POP POP JUMP JUMPDEST PUSH32 0x4E487B7100000000000000000000000000000000000000000000000000000000 PUSH1 0x0 MSTORE PUSH1 0x32 PUSH1 0x4 MSTORE PUSH1 0x24 PUSH1 0x0 REVERT JUMPDEST PUSH32 0x4E487B7100000000000000000000000000000000000000000000000000000000 PUSH1 0x0 MSTORE PUSH1 0x22 PUSH1 0x4 MSTORE PUSH1 0x24 PUSH1 0x0 REVERT JUMPDEST PUSH1 0x0 PUSH1 0x2 DUP3 DIV SWAP1 POP PUSH1 0x1 DUP3 AND DUP1 PUSH2 0x1F19 JUMPI PUSH1 0x7F DUP3 AND SWAP2 POP JUMPDEST PUSH1 0x20 DUP3 LT DUP2 SUB PUSH2 0x1F2C JUMPI PUSH2 0x1F2B PUSH2 0x1ED2 JUMP JUMPDEST JUMPDEST POP SWAP2 SWAP1 POP JUMP JUMPDEST PUSH32 0x5065726D697373696F6E2064656E696564000000000000000000000000000000 PUSH1 0x0 DUP3 ADD MSTORE POP JUMP JUMPDEST PUSH1 0x0 PUSH2 0x1F68 PUSH1 0x11 DUP4 PUSH2 0x1902 JUMP JUMPDEST SWAP2 POP PUSH2 0x1F73 DUP3 PUSH2 0x1F32 JUMP JUMPDEST PUSH1 0x20 DUP3 ADD SWAP1 POP SWAP2 SWAP1 POP JUMP JUMPDEST PUSH1 0x0 PUSH1 0x20 DUP3 ADD SWAP1 POP DUP2 DUP2 SUB PUSH1 0x0 DUP4 ADD MSTORE PUSH2 0x1F97 DUP2 PUSH2 0x1F5B JUMP JUMPDEST SWAP1 POP SWAP2 SWAP1 POP JUMP JUMPDEST PUSH32 0x4D6178206E756D62657220666F722073657269616C206B657973206973203300 PUSH1 0x0 DUP3 ADD MSTORE POP JUMP JUMPDEST PUSH1 0x0 PUSH2 0x1FD4 PUSH1 0x1F DUP4 PUSH2 0x1902 JUMP JUMPDEST SWAP2 POP PUSH2 0x1FDF DUP3 PUSH2 0x1F9E JUMP JUMPDEST PUSH1 0x20 DUP3 ADD SWAP1 POP SWAP2 SWAP1 POP JUMP JUMPDEST PUSH1 0x0 PUSH1 0x20 DUP3 ADD SWAP1 POP DUP2 DUP2 SUB PUSH1 0x0 DUP4 ADD MSTORE PUSH2 0x2003 DUP2 PUSH2 0x1FC7 JUMP JUMPDEST SWAP1 POP SWAP2 SWAP1 POP JUMP JUMPDEST PUSH32 0x4E487B7100000000000000000000000000000000000000000000000000000000 PUSH1 0x0 MSTORE PUSH1 0x41 PUSH1 0x4 MSTORE PUSH1 0x24 PUSH1 0x0 REVERT JUMPDEST PUSH2 0x2042 DUP3 PUSH2 0x193D JUMP JUMPDEST DUP2 ADD DUP2 DUP2 LT PUSH8 0xFFFFFFFFFFFFFFFF DUP3 GT OR ISZERO PUSH2 0x2061 JUMPI PUSH2 0x2060 PUSH2 0x200A JUMP JUMPDEST JUMPDEST DUP1 PUSH1 0x40 MSTORE POP POP POP JUMP JUMPDEST PUSH1 0x0 PUSH2 0x2074 PUSH2 0x188A JUMP JUMPDEST SWAP1 POP PUSH2 0x2080 DUP3 DUP3 PUSH2 0x2039 JUMP JUMPDEST SWAP2 SWAP1 POP JUMP JUMPDEST PUSH1 0x0 PUSH8 0xFFFFFFFFFFFFFFFF DUP3 GT ISZERO PUSH2 0x20A0 JUMPI PUSH2 0x209F PUSH2 0x200A JUMP JUMPDEST JUMPDEST PUSH1 0x20 DUP3 MUL SWAP1 POP PUSH1 0x20 DUP2 ADD SWAP1 POP SWAP2 SWAP1 POP JUMP JUMPDEST PUSH1 0x0 DUP1 REVERT JUMPDEST PUSH1 0x0 PUSH8 0xFFFFFFFFFFFFFFFF DUP3 GT ISZERO PUSH2 0x20D1 JUMPI PUSH2 0x20D0 PUSH2 0x200A JUMP JUMPDEST JUMPDEST PUSH2 0x20DA DUP3 PUSH2 0x193D JUMP JUMPDEST SWAP1 POP PUSH1 0x20 DUP2 ADD SWAP1 POP SWAP2 SWAP1 POP JUMP JUMPDEST DUP3 DUP2 DUP4 CALLDATACOPY PUSH1 0x0 DUP4 DUP4 ADD MSTORE POP POP POP JUMP JUMPDEST PUSH1 0x0 PUSH2 0x2109 PUSH2 0x2104 DUP5 PUSH2 0x20B6 JUMP JUMPDEST PUSH2 0x206A JUMP JUMPDEST SWAP1 POP DUP3 DUP2 MSTORE PUSH1 0x20 DUP2 ADD DUP5 DUP5 DUP5 ADD GT ISZERO PUSH2 0x2125 JUMPI PUSH2 0x2124 PUSH2 0x20B1 JUMP JUMPDEST JUMPDEST PUSH2 0x2130 DUP5 DUP3 DUP6 PUSH2 0x20E7 JUMP JUMPDEST POP SWAP4 SWAP3 POP POP POP JUMP JUMPDEST PUSH1 0x0 DUP3 PUSH1 0x1F DUP4 ADD SLT PUSH2 0x214D JUMPI PUSH2 0x214C PUSH2 0x1AB4 JUMP JUMPDEST JUMPDEST DUP2 CALLDATALOAD PUSH2 0x215D DUP5 DUP3 PUSH1 0x20 DUP7 ADD PUSH2 0x20F6 JUMP JUMPDEST SWAP2 POP POP SWAP3 SWAP2 POP POP JUMP JUMPDEST PUSH1 0x0 PUSH2 0x2179 PUSH2 0x2174 DUP5 PUSH2 0x2085 JUMP JUMPDEST PUSH2 0x206A JUMP JUMPDEST SWAP1 POP DUP1 DUP4 DUP3 MSTORE PUSH1 0x20 DUP3 ADD SWAP1 POP PUSH1 0x20 DUP5 MUL DUP4 ADD DUP6 DUP2 GT ISZERO PUSH2 0x219C JUMPI PUSH2 0x219B PUSH2 0x1ABE JUMP JUMPDEST JUMPDEST DUP4 JUMPDEST DUP2 DUP2 LT ISZERO PUSH2 0x21E3 JUMPI DUP1 CALLDATALOAD PUSH8 0xFFFFFFFFFFFFFFFF DUP2 GT ISZERO PUSH2 0x21C1 JUMPI PUSH2 0x21C0 PUSH2 0x1AB4 JUMP JUMPDEST JUMPDEST DUP1 DUP7 ADD PUSH2 0x21CE DUP10 DUP3 PUSH2 0x2138 JUMP JUMPDEST DUP6 MSTORE PUSH1 0x20 DUP6 ADD SWAP5 POP POP POP PUSH1 0x20 DUP2 ADD SWAP1 POP PUSH2 0x219E JUMP JUMPDEST POP POP POP SWAP4 SWAP3 POP POP POP JUMP JUMPDEST PUSH1 0x0 PUSH2 0x21FA CALLDATASIZE DUP5 DUP5 PUSH2 0x2166 JUMP JUMPDEST SWAP1 POP SWAP3 SWAP2 POP POP JUMP JUMPDEST PUSH1 0x0 DUP2 SWAP1 POP DUP2 PUSH1 0x0 MSTORE PUSH1 0x20 PUSH1 0x0 KECCAK256 SWAP1 POP SWAP2 SWAP1 POP JUMP JUMPDEST PUSH1 0x0 PUSH1 0x20 PUSH1 0x1F DUP4 ADD DIV SWAP1 POP SWAP2 SWAP1 POP JUMP JUMPDEST PUSH1 0x0 DUP3 DUP3 SHL SWAP1 POP SWAP3 SWAP2 POP POP JUMP JUMPDEST PUSH1 0x0 PUSH1 0x8 DUP4 MUL PUSH2 0x2264 PUSH32 0xFFFFFFFFFFFFFFFFFFFFFFFFFFFFFFFFFFFFFFFFFFFFFFFFFFFFFFFFFFFFFFFF DUP3 PUSH2 0x2227 JUMP JUMPDEST PUSH2 0x226E DUP7 DUP4 PUSH2 0x2227 JUMP JUMPDEST SWAP6 POP DUP1 NOT DUP5 AND SWAP4 POP DUP1 DUP7 AND DUP5 OR SWAP3 POP POP POP SWAP4 SWAP3 POP POP POP JUMP JUMPDEST PUSH1 0x0 DUP2 SWAP1 POP SWAP2 SWAP1 POP JUMP JUMPDEST PUSH1 0x0 PUSH2 0x22AB PUSH2 0x22A6 PUSH2 0x22A1 DUP5 PUSH2 0x1856 JUMP JUMPDEST PUSH2 0x2286 JUMP JUMPDEST PUSH2 0x1856 JUMP JUMPDEST SWAP1 POP SWAP2 SWAP1 POP JUMP JUMPDEST PUSH1 0x0 DUP2 SWAP1 POP SWAP2 SWAP1 POP JUMP JUMPDEST PUSH2 0x22C5 DUP4 PUSH2 0x2290 JUMP JUMPDEST PUSH2 0x22D9 PUSH2 0x22D1 DUP3 PUSH2 0x22B2 JUMP JUMPDEST DUP5 DUP5 SLOAD PUSH2 0x2234 JUMP JUMPDEST DUP3 SSTORE POP POP POP POP JUMP JUMPDEST PUSH1 0x0 SWAP1 JUMP JUMPDEST PUSH2 0x22EE PUSH2 0x22E1 JUMP JUMPDEST PUSH2 0x22F9 DUP2 DUP5 DUP5 PUSH2 0x22BC JUMP JUMPDEST POP POP POP JUMP JUMPDEST JUMPDEST DUP2 DUP2 LT ISZERO PUSH2 0x231D JUMPI PUSH2 0x2312 PUSH1 0x0 DUP3 PUSH2 0x22E6 JUMP JUMPDEST PUSH1 0x1 DUP2 ADD SWAP1 POP PUSH2 0x22FF JUMP JUMPDEST POP POP JUMP JUMPDEST PUSH1 0x1F DUP3 GT ISZERO PUSH2 0x2362 JUMPI PUSH2 0x2333 DUP2 PUSH2 0x2202 JUMP JUMPDEST PUSH2 0x233C DUP5 PUSH2 0x2217 JUMP JUMPDEST DUP2 ADD PUSH1 0x20 DUP6 LT ISZERO PUSH2 0x234B JUMPI DUP2 SWAP1 POP JUMPDEST PUSH2 0x235F PUSH2 0x2357 DUP6 PUSH2 0x2217 JUMP JUMPDEST DUP4 ADD DUP3 PUSH2 0x22FE JUMP JUMPDEST POP POP JUMPDEST POP POP POP JUMP JUMPDEST PUSH1 0x0 DUP3 DUP3 SHR SWAP1 POP SWAP3 SWAP2 POP POP JUMP JUMPDEST PUSH1 0x0 PUSH2 0x2385 PUSH1 0x0 NOT DUP5 PUSH1 0x8 MUL PUSH2 0x2367 JUMP JUMPDEST NOT DUP1 DUP4 AND SWAP2 POP POP SWAP3 SWAP2 POP POP JUMP JUMPDEST PUSH1 0x0 PUSH2 0x239E DUP4 DUP4 PUSH2 0x2374 JUMP JUMPDEST SWAP2 POP DUP3 PUSH1 0x2 MUL DUP3 OR SWAP1 POP SWAP3 SWAP2 POP POP JUMP JUMPDEST PUSH2 0x23B7 DUP3 PUSH2 0x18F7 JUMP JUMPDEST PUSH8 0xFFFFFFFFFFFFFFFF DUP2 GT ISZERO PUSH2 0x23D0 JUMPI PUSH2 0x23CF PUSH2 0x200A JUMP JUMPDEST JUMPDEST PUSH2 0x23DA DUP3 SLOAD PUSH2 0x1F01 JUMP JUMPDEST PUSH2 0x23E5 DUP3 DUP3 DUP6 PUSH2 0x2321 JUMP JUMPDEST PUSH1 0x0 PUSH1 0x20 SWAP1 POP PUSH1 0x1F DUP4 GT PUSH1 0x1 DUP2 EQ PUSH2 0x2418 JUMPI PUSH1 0x0 DUP5 ISZERO PUSH2 0x2406 JUMPI DUP3 DUP8 ADD MLOAD SWAP1 POP JUMPDEST PUSH2 0x2410 DUP6 DUP3 PUSH2 0x2392 JUMP JUMPDEST DUP7 SSTORE POP PUSH2 0x2478 JUMP JUMPDEST PUSH1 0x1F NOT DUP5 AND PUSH2 0x2426 DUP7 PUSH2 0x2202 JUMP JUMPDEST PUSH1 0x0 JUMPDEST DUP3 DUP2 LT ISZERO PUSH2 0x244E JUMPI DUP5 DUP10 ADD MLOAD DUP3 SSTORE PUSH1 0x1 DUP3 ADD SWAP2 POP PUSH1 0x20 DUP6 ADD SWAP5 POP PUSH1 0x20 DUP2 ADD SWAP1 POP PUSH2 0x2429 JUMP JUMPDEST DUP7 DUP4 LT ISZERO PUSH2 0x246B JUMPI DUP5 DUP10 ADD MLOAD PUSH2 0x2467 PUSH1 0x1F DUP10 AND DUP3 PUSH2 0x2374 JUMP JUMPDEST DUP4 SSTORE POP JUMPDEST PUSH1 0x1 PUSH1 0x2 DUP9 MUL ADD DUP9 SSTORE POP POP POP JUMPDEST POP POP POP POP POP POP JUMP JUMPDEST PUSH32 0x47616D65207769746820696420646F6573206E6F742065786973740000000000 PUSH1 0x0 DUP3 ADD MSTORE POP JUMP JUMPDEST PUSH1 0x0 PUSH2 0x24B6 PUSH1 0x1B DUP4 PUSH2 0x1902 JUMP JUMPDEST SWAP2 POP PUSH2 0x24C1 DUP3 PUSH2 0x2480 JUMP JUMPDEST PUSH1 0x20 DUP3 ADD SWAP1 POP SWAP2 SWAP1 POP JUMP JUMPDEST PUSH1 0x0 PUSH1 0x20 DUP3 ADD SWAP1 POP DUP2 DUP2 SUB PUSH1 0x0 DUP4 ADD MSTORE PUSH2 0x24E5 DUP2 PUSH2 0x24A9 JUMP JUMPDEST SWAP1 POP SWAP2 SWAP1 POP JUMP JUMPDEST PUSH32 0x496E76616C69642067616D652073746174757300000000000000000000000000 PUSH1 0x0 DUP3 ADD MSTORE POP JUMP JUMPDEST PUSH1 0x0 PUSH2 0x2522 PUSH1 0x13 DUP4 PUSH2 0x1902 JUMP JUMPDEST SWAP2 POP PUSH2 0x252D DUP3 PUSH2 0x24EC JUMP JUMPDEST PUSH1 0x20 DUP3 ADD SWAP1 POP SWAP2 SWAP1 POP JUMP JUMPDEST PUSH1 0x0 PUSH1 0x20 DUP3 ADD SWAP1 POP DUP2 DUP2 SUB PUSH1 0x0 DUP4 ADD MSTORE PUSH2 0x2551 DUP2 PUSH2 0x2515 JUMP JUMPDEST SWAP1 POP SWAP2 SWAP1 POP JUMP JUMPDEST PUSH1 0x0 DUP2 SWAP1 POP SWAP3 SWAP2 POP POP JUMP JUMPDEST PUSH1 0x0 PUSH2 0x256F DUP4 DUP6 PUSH2 0x2558 JUMP JUMPDEST SWAP4 POP PUSH2 0x257C DUP4 DUP6 DUP5 PUSH2 0x20E7 JUMP JUMPDEST DUP3 DUP5 ADD SWAP1 POP SWAP4 SWAP3 POP POP POP JUMP JUMPDEST PUSH1 0x0 PUSH2 0x2595 DUP3 DUP5 DUP7 PUSH2 0x2563 JUMP JUMPDEST SWAP2 POP DUP2 SWAP1 POP SWAP4 SWAP3 POP POP POP JUMP JUMPDEST PUSH1 0x0 DUP2 SLOAD PUSH2 0x25AE DUP2 PUSH2 0x1F01 JUMP JUMPDEST PUSH2 0x25B8 DUP2 DUP7 PUSH2 0x2558 JUMP JUMPDEST SWAP5 POP PUSH1 0x1 DUP3 AND PUSH1 0x0 DUP2 EQ PUSH2 0x25D3 JUMPI PUSH1 0x1 DUP2 EQ PUSH2 0x25E8 JUMPI PUSH2 0x261B JUMP JUMPDEST PUSH1 0xFF NOT DUP4 AND DUP7 MSTORE DUP2 ISZERO ISZERO DUP3 MUL DUP7 ADD SWAP4 POP PUSH2 0x261B JUMP JUMPDEST PUSH2 0x25F1 DUP6 PUSH2 0x2202 JUMP JUMPDEST PUSH1 0x0 JUMPDEST DUP4 DUP2 LT ISZERO PUSH2 0x2613 JUMPI DUP2 SLOAD DUP2 DUP10 ADD MSTORE PUSH1 0x1 DUP3 ADD SWAP2 POP PUSH1 0x20 DUP2 ADD SWAP1 POP PUSH2 0x25F4 JUMP JUMPDEST DUP4 DUP9 ADD SWAP6 POP POP POP JUMPDEST POP POP POP SWAP3 SWAP2 POP POP JUMP JUMPDEST PUSH1 0x0 PUSH2 0x2630 DUP3 DUP5 PUSH2 0x25A1 JUMP JUMPDEST SWAP2 POP DUP2 SWAP1 POP SWAP3 SWAP2 POP POP JUMP JUMPDEST PUSH32 0x4475706C69636174652073657269616C206B65797320617265206E6F7420616C PUSH1 0x0 DUP3 ADD MSTORE PUSH32 0x6C6F776564000000000000000000000000000000000000000000000000000000 PUSH1 0x20 DUP3 ADD MSTORE POP JUMP JUMPDEST PUSH1 0x0 PUSH2 0x2697 PUSH1 0x25 DUP4 PUSH2 0x1902 JUMP JUMPDEST SWAP2 POP PUSH2 0x26A2 DUP3 PUSH2 0x263B JUMP JUMPDEST PUSH1 0x40 DUP3 ADD SWAP1 POP SWAP2 SWAP1 POP JUMP JUMPDEST PUSH1 0x0 PUSH1 0x20 DUP3 ADD SWAP1 POP DUP2 DUP2 SUB PUSH1 0x0 DUP4 ADD MSTORE PUSH2 0x26C6 DUP2 PUSH2 0x268A JUMP JUMPDEST SWAP1 POP SWAP2 SWAP1 POP JUMP JUMPDEST PUSH32 0x4E487B7100000000000000000000000000000000000000000000000000000000 PUSH1 0x0 MSTORE PUSH1 0x11 PUSH1 0x4 MSTORE PUSH1 0x24 PUSH1 0x0 REVERT JUMPDEST PUSH1 0x0 PUSH2 0x2707 DUP3 PUSH2 0x1856 JUMP JUMPDEST SWAP2 POP PUSH32 0xFFFFFFFFFFFFFFFFFFFFFFFFFFFFFFFFFFFFFFFFFFFFFFFFFFFFFFFFFFFFFFFF DUP3 SUB PUSH2 0x2739 JUMPI PUSH2 0x2738 PUSH2 0x26CD JUMP JUMPDEST JUMPDEST PUSH1 0x1 DUP3 ADD SWAP1 POP SWAP2 SWAP1 POP JUMP JUMPDEST PUSH1 0x0 DUP3 SWAP1 POP SWAP3 SWAP2 POP POP JUMP JUMPDEST PUSH2 0x2759 DUP4 DUP4 PUSH2 0x2744 JUMP JUMPDEST PUSH8 0xFFFFFFFFFFFFFFFF DUP2 GT ISZERO PUSH2 0x2772 JUMPI PUSH2 0x2771 PUSH2 0x200A JUMP JUMPDEST JUMPDEST PUSH2 0x277C DUP3 SLOAD PUSH2 0x1F01 JUMP JUMPDEST PUSH2 0x2787 DUP3 DUP3 DUP6 PUSH2 0x2321 JUMP JUMPDEST PUSH1 0x0 PUSH1 0x1F DUP4 GT PUSH1 0x1 DUP2 EQ PUSH2 0x27B6 JUMPI PUSH1 0x0 DUP5 ISZERO PUSH2 0x27A4 JUMPI DUP3 DUP8 ADD CALLDATALOAD SWAP1 POP JUMPDEST PUSH2 0x27AE DUP6 DUP3 PUSH2 0x2392 JUMP JUMPDEST DUP7 SSTORE POP PUSH2 0x2816 JUMP JUMPDEST PUSH1 0x1F NOT DUP5 AND PUSH2 0x27C4 DUP7 PUSH2 0x2202 JUMP JUMPDEST PUSH1 0x0 JUMPDEST DUP3 DUP2 LT ISZERO PUSH2 0x27EC JUMPI DUP5 DUP10 ADD CALLDATALOAD DUP3 SSTORE PUSH1 0x1 DUP3 ADD SWAP2 POP PUSH1 0x20 DUP6 ADD SWAP5 POP PUSH1 0x20 DUP2 ADD SWAP1 POP PUSH2 0x27C7 JUMP JUMPDEST DUP7 DUP4 LT ISZERO PUSH2 0x2809 JUMPI DUP5 DUP10 ADD CALLDATALOAD PUSH2 0x2805 PUSH1 0x1F DUP10 AND DUP3 PUSH2 0x2374 JUMP JUMPDEST DUP4 SSTORE POP JUMPDEST PUSH1 0x1 PUSH1 0x2 DUP9 MUL ADD DUP9 SSTORE POP POP POP JUMPDEST POP POP POP POP POP POP POP JUMP JUMPDEST PUSH32 0x4E6F2062616C616E6365206F6E20616464726573730000000000000000000000 PUSH1 0x0 DUP3 ADD MSTORE POP JUMP JUMPDEST PUSH1 0x0 PUSH2 0x2855 PUSH1 0x15 DUP4 PUSH2 0x1902 JUMP JUMPDEST SWAP2 POP PUSH2 0x2860 DUP3 PUSH2 0x281F JUMP JUMPDEST PUSH1 0x20 DUP3 ADD SWAP1 POP SWAP2 SWAP1 POP JUMP JUMPDEST PUSH1 0x0 PUSH1 0x20 DUP3 ADD SWAP1 POP DUP2 DUP2 SUB PUSH1 0x0 DUP4 ADD MSTORE PUSH2 0x2884 DUP2 PUSH2 0x2848 JUMP JUMPDEST SWAP1 POP SWAP2 SWAP1 POP JUMP JUMPDEST PUSH1 0x0 DUP2 SWAP1 POP SWAP3 SWAP2 POP POP JUMP JUMPDEST POP JUMP JUMPDEST PUSH1 0x0 PUSH2 0x28A6 PUSH1 0x0 DUP4 PUSH2 0x288B JUMP JUMPDEST SWAP2 POP PUSH2 0x28B1 DUP3 PUSH2 0x2896 JUMP JUMPDEST PUSH1 0x0 DUP3 ADD SWAP1 POP SWAP2 SWAP1 POP JUMP JUMPDEST PUSH1 0x0 PUSH2 0x28C7 DUP3 PUSH2 0x2899 JUMP JUMPDEST SWAP2 POP DUP2 SWAP1 POP SWAP2 SWAP1 POP JUMP JUMPDEST PUSH32 0x436C61696D206661696C65640000000000000000000000000000000000000000 PUSH1 0x0 DUP3 ADD MSTORE POP JUMP JUMPDEST PUSH1 0x0 PUSH2 0x2907 PUSH1 0xC DUP4 PUSH2 0x1902 JUMP JUMPDEST SWAP2 POP PUSH2 0x2912 DUP3 PUSH2 0x28D1 JUMP JUMPDEST PUSH1 0x20 DUP3 ADD SWAP1 POP SWAP2 SWAP1 POP JUMP JUMPDEST PUSH1 0x0 PUSH1 0x20 DUP3 ADD SWAP1 POP DUP2 DUP2 SUB PUSH1 0x0 DUP4 ADD MSTORE PUSH2 0x2936 DUP2 PUSH2 0x28FA JUMP JUMPDEST SWAP1 POP SWAP2 SWAP1 POP JUMP JUMPDEST PUSH32 0x47616D65206973206E6F7420617661696C61626C650000000000000000000000 PUSH1 0x0 DUP3 ADD MSTORE POP JUMP JUMPDEST PUSH1 0x0 PUSH2 0x2973 PUSH1 0x15 DUP4 PUSH2 0x1902 JUMP JUMPDEST SWAP2 POP PUSH2 0x297E DUP3 PUSH2 0x293D JUMP JUMPDEST PUSH1 0x20 DUP3 ADD SWAP1 POP SWAP2 SWAP1 POP JUMP JUMPDEST PUSH1 0x0 PUSH1 0x20 DUP3 ADD SWAP1 POP DUP2 DUP2 SUB PUSH1 0x0 DUP4 ADD MSTORE PUSH2 0x29A2 DUP2 PUSH2 0x2966 JUMP JUMPDEST SWAP1 POP SWAP2 SWAP1 POP JUMP JUMPDEST PUSH32 0x496E636F727265637420457468657220616D6F756E742073656E740000000000 PUSH1 0x0 DUP3 ADD MSTORE POP JUMP JUMPDEST PUSH1 0x0 PUSH2 0x29DF PUSH1 0x1B DUP4 PUSH2 0x1902 JUMP JUMPDEST SWAP2 POP PUSH2 0x29EA DUP3 PUSH2 0x29A9 JUMP JUMPDEST PUSH1 0x20 DUP3 ADD SWAP1 POP SWAP2 SWAP1 POP JUMP JUMPDEST PUSH1 0x0 PUSH1 0x20 DUP3 ADD SWAP1 POP DUP2 DUP2 SUB PUSH1 0x0 DUP4 ADD MSTORE PUSH2 0x2A0E DUP2 PUSH2 0x29D2 JUMP JUMPDEST SWAP1 POP SWAP2 SWAP1 POP JUMP JUMPDEST PUSH32 0x5061796D656E74206661696C6564000000000000000000000000000000000000 PUSH1 0x0 DUP3 ADD MSTORE POP JUMP JUMPDEST PUSH1 0x0 PUSH2 0x2A4B PUSH1 0xE DUP4 PUSH2 0x1902 JUMP JUMPDEST SWAP2 POP PUSH2 0x2A56 DUP3 PUSH2 0x2A15 JUMP JUMPDEST PUSH1 0x20 DUP3 ADD SWAP1 POP SWAP2 SWAP1 POP JUMP JUMPDEST PUSH1 0x0 PUSH1 0x20 DUP3 ADD SWAP1 POP DUP2 DUP2 SUB PUSH1 0x0 DUP4 ADD MSTORE PUSH2 0x2A7A DUP2 PUSH2 0x2A3E JUMP JUMPDEST SWAP1 POP SWAP2 SWAP1 POP JUMP JUMPDEST PUSH1 0x0 PUSH2 0x2A8C DUP3 PUSH2 0x1856 JUMP JUMPDEST SWAP2 POP PUSH2 0x2A97 DUP4 PUSH2 0x1856 JUMP JUMPDEST SWAP3 POP DUP3 DUP3 SUB SWAP1 POP DUP2 DUP2 GT ISZERO PUSH2 0x2AAF JUMPI PUSH2 0x2AAE PUSH2 0x26CD JUMP JUMPDEST JUMPDEST SWAP3 SWAP2 POP POP JUMP JUMPDEST PUSH1 0x0 PUSH2 0x2AC0 DUP3 PUSH2 0x1856 JUMP JUMPDEST SWAP2 POP PUSH2 0x2ACB DUP4 PUSH2 0x1856 JUMP JUMPDEST SWAP3 POP DUP3 DUP3 ADD SWAP1 POP DUP1 DUP3 GT ISZERO PUSH2 0x2AE3 JUMPI PUSH2 0x2AE2 PUSH2 0x26CD JUMP JUMPDEST JUMPDEST SWAP3 SWAP2 POP POP JUMP JUMPDEST PUSH1 0x0 DUP2 SLOAD SWAP1 POP PUSH2 0x2AF8 DUP2 PUSH2 0x1F01 JUMP JUMPDEST SWAP1 POP SWAP2 SWAP1 POP JUMP JUMPDEST PUSH1 0x0 DUP2 SWAP1 POP DUP2 PUSH1 0x0 MSTORE PUSH1 0x20 PUSH1 0x0 KECCAK256 SWAP1 POP SWAP2 SWAP1 POP JUMP JUMPDEST DUP2 DUP2 SUB PUSH2 0x2B22 JUMPI POP POP PUSH2 0x2BFA JUMP JUMPDEST PUSH2 0x2B2B DUP3 PUSH2 0x2AE9 JUMP JUMPDEST PUSH8 0xFFFFFFFFFFFFFFFF DUP2 GT ISZERO PUSH2 0x2B44 JUMPI PUSH2 0x2B43 PUSH2 0x200A JUMP JUMPDEST JUMPDEST PUSH2 0x2B4E DUP3 SLOAD PUSH2 0x1F01 JUMP JUMPDEST PUSH2 0x2B59 DUP3 DUP3 DUP6 PUSH2 0x2321 JUMP JUMPDEST PUSH1 0x0 PUSH1 0x1F DUP4 GT PUSH1 0x1 DUP2 EQ PUSH2 0x2B88 JUMPI PUSH1 0x0 DUP5 ISZERO PUSH2 0x2B76 JUMPI DUP3 DUP8 ADD SLOAD SWAP1 POP JUMPDEST PUSH2 0x2B80 DUP6 DUP3 PUSH2 0x2392 JUMP JUMPDEST DUP7 SSTORE POP PUSH2 0x2BF3 JUMP JUMPDEST PUSH1 0x1F NOT DUP5 AND PUSH2 0x2B96 DUP8 PUSH2 0x2AFF JUMP JUMPDEST SWAP7 POP PUSH2 0x2BA1 DUP7 PUSH2 0x2202 JUMP JUMPDEST PUSH1 0x0 JUMPDEST DUP3 DUP2 LT ISZERO PUSH2 0x2BC9 JUMPI DUP5 DUP10 ADD SLOAD DUP3 SSTORE PUSH1 0x1 DUP3 ADD SWAP2 POP PUSH1 0x1 DUP6 ADD SWAP5 POP PUSH1 0x20 DUP2 ADD SWAP1 POP PUSH2 0x2BA4 JUMP JUMPDEST DUP7 DUP4 LT ISZERO PUSH2 0x2BE6 JUMPI DUP5 DUP10 ADD SLOAD PUSH2 0x2BE2 PUSH1 0x1F DUP10 AND DUP3 PUSH2 0x2374 JUMP JUMPDEST DUP4 SSTORE POP JUMPDEST PUSH1 0x1 PUSH1 0x2 DUP9 MUL ADD DUP9 SSTORE POP POP POP JUMPDEST POP POP POP POP POP POP JUMPDEST JUMP JUMPDEST PUSH32 0x4E487B7100000000000000000000000000000000000000000000000000000000 PUSH1 0x0 MSTORE PUSH1 0x31 PUSH1 0x4 MSTORE PUSH1 0x24 PUSH1 0x0 REVERT JUMPDEST PUSH32 0x4E487B7100000000000000000000000000000000000000000000000000000000 PUSH1 0x0 MSTORE PUSH1 0x51 PUSH1 0x4 MSTORE PUSH1 0x24 PUSH1 0x0 REVERT INVALID LOG2 PUSH5 0x6970667358 0x22 SLT KECCAK256 0xC PUSH21 0xED8CAB16E73E0636D3D1BF79C3475F84BBAFAF744D 0xCE 0x4C SAR 0xC9 0xCF JUMPDEST 0x4D 0xDB 0xB8 PUSH5 0x736F6C6343 STOP ADDMOD SGT STOP CALLER "},"methodIdentifiers":{"addGame(string,uint256,string[])":"a54f1103","addSerialKey(string,uint256)":"ceb27ff2","buyGame(uint256)":"f7760517","claimStoreFunds()":"e7be97ac","getContractBalance()":"6f9fb98a","getCustomerGames()":"f8ea5adc","getGameInfo(uint256)":"47e1d550","getGamesCount()":"17b7a476","getKeys(uint256)":"8d357fa3","getOwner()":"893d20e8","removeGame(uint256)":"73d31240","users(address)":"a87430ba"}}}}}